:020000040800F2
:100000003819002035020008F33D0008AF3B000816
:10001000F13D0008AD200008F14300080000000099
:10002000000000000000000000000000B93E0008D1
:100030001721000800000000F53D0008BB3E000845
:100040004F0200084F0200084F0200084F0200084C
:100050004F0200084F0200084F0200084F0200083C
:100060004F0200084F0200084F020008B1200008AC
:100070004F0200084F020008BD200008C9200008F8
:10008000D5200008E12000084F0200084F020008B8
:100090004F0200084F0200084F0200084F020008FC
:1000A0004F0200084F0200084F0200084F020008EC
:1000B0004F0200084F020008393F00084F020008B5
:1000C0004F0200084F0200084F0200084F020008CC
:1000D0004F020008D9430008E54300084F0200081A
:1000E000192100084F0200084F02000800F002F832
:1000F00000F090F80AA090E8000C82448344AAF132
:100100000107DA4501D100F085F8AFF2090EBAE82F
:100110000F0013F0010F18BFFB1A43F0010318473B
:10012000D4490000F4490000103A24BF78C878C1CF
:10013000FAD8520724BF30C830C144BF04680C60ED
:10014000704700000023002400250026103A28BF35
:1001500078C1FBD8520728BF30C148BF0B60704739
:100160006E2900F0F082702900F05F86662904F0A5
:100170002984652904F02684672904F023846129F1
:1001800004F0228403681B0A28BF41F0800169291A
:1001900000F0CA80642900F0C780752900F0C4808F
:1001A0006F2900F0EC85782900F02B86E92900F012
:1001B0008785E42900F08485F52900F08185EF2901
:1001C00000F0E985F82900F02A860368DB0928BFDA
:1001D00041F08001632900F00885732900F00D8546
:1001E000E32901F03F80F32901F0448000207047AB
:1001F0001FB500F025FE04000020002104F0F8F9EE
:10020000401C60600020002104F0DCF9E0601FBDAC
:1002100010B510BD01F0C8F81146FFF7E9FF04F072
:1002200013F901F0EFF803B4FFF7F2FF03BC01F09C
:1002300033F900000948804709480047FEE7FEE718
:10024000FEE7FEE7FEE7FEE7FEE7FEE7FEE7FEE786
:1002500004480549054A064B70470000373F00082F
:10026000ED00000838130020381900203815002050
:10027000381500207CB51D4616460C00009001D0B4
:100280002044401E074B7B442A4669460190304675
:1002900000F081FC05461CB10020694600F08EFC90
:1002A00028467CBD3D0900000FB41CB5084B06AACA
:1002B0007B4469460090059800F06DFC04460020E0
:1002C000694600F07BFC20461CBC5DF814FB000076
:1002D0000909000070B50C460546012A05D02878AA
:1002E000800600D5EA69002302E0012305E05B1CDB
:1002F000934202D2E05C0028F9D1A869E618C01A3E
:10030000A861286A18442862284600F08AF904E0A7
:10031000D5E9012114F8010B9047B442F8D32846DF
:1003200000F095F970BD00002DE9F041064600246B
:1003300010687529314616A510D000F099F90028EB
:1003400002DA404213A507E031688A0701D512A5F9
:1003500002E0490704D511A5012401E000F091F95C
:1003600000210A2206F1240709E0B0FBF2FCB0FBF1
:10037000F2F302FB1C00303078541846491C002868
:10038000F3D123462A463046BDE8F04100F082B959
:10039000000000002D0000002B00000020000000E5
:1003A0002DE9F05F894604464FF0000ADFF874B18A
:1003B000FB44C0F820A02046E1688847002874D09C
:1003C000252806D0D4E901219047206A401C2062EC
:1003D000F1E700265F462046E16888472028054669
:1003E00007DB312D05D2781910F8200C08B106432F
:1003F000F1E7B00701D526F00406C4F81CA00027D9
:10040000C4F818A02A2D09D0284604F016F838B3ED
:1004100004EB8708303DC8F8185019E059F8041B60
:10042000204604EB87029161E1688847012F054669
:1004300018D1E069002820DA26F020061DE0D8F85F
:10044000180000EB800005EB40003038C8F81800B9
:100450002046E1688847054603F0EFFF0028EED10B
:10046000012F0AD02E2D08D12046E16888477F1C35
:100470000546022F46F02006C4DBA069002803DAF7
:10048000404246F00106A061F00701D026F01006B8
:100490006C2D0BD0682D09D04C2D39D06A2D35D05C
:1004A000742D35D07A2D33D016E038E0E1682F4630
:1004B00020468847B842054609D16C2F26D04FF414
:1004C0008060E168064320468847054604E06C2FBB
:1004D0001AD04FF4807006430DB3A5F141001928DE
:1004E00002D8203546F400664A4629462046266052
:1004F0004E46FFF735FE80B101280BD0F61D26F0E1
:10050000070000F1080956E74020E4E78020D8E71B
:100510000020D6E706F104094DE7284652E7206A95
:10052000BDE8F09F4246000030B505460B462A461E
:1005300013F8014B12F8010B08B1A042F8D01CB11E
:10054000002802D06D1CF1E7284630BD10B5431CD1
:1005500002E010F8011B71B18107FAD14FF00132AE
:1005600002C88C1A8C4314EAC211F9D0C01A0A06C8
:1005700003D0C01E10BDC01A10BD0A0401D0801ED9
:1005800010BD0902FCD0401E10BD4FF0000204292E
:10059000C0F0128010F0030C00F01B80CCF1040CB2
:1005A000BCF1020F18BF00F8012BA8BF20F8022BE6
:1005B000A1EB0C0100F00DB85FEAC17C24BF00F88C
:1005C000012B00F8012B48BF00F8012B70474FF0BA
:1005D000000200B5134694469646203922BFA0E893
:1005E0000C50A0E80C50B1F12001BFF4F7AF09079F
:1005F00028BFA0E80C5048BF0CC05DF804EB890090
:1006000028BF40F8042B08BF704748BF20F8022BD2
:1006100011F0804F18BF00F8012B704770477047EA
:10062000704770B5044685690068C10601D530265B
:1006300000E02026C00707D070BDD4E90121304674
:100640009047206A401C20626D1EF6D570BD70B5C3
:10065000044685690078C00707D170BDD4E901213F
:1006600020209047206A401C20626D1EF6D570BD88
:1006700009684A0501D540B27047C905FCD500B2EA
:10068000704709684A0501D5C0B27047C905FCD555
:1006900080B270472DE9F0470D46994692460446D0
:1006A00000F124080168880604D5E06921F01001F2
:1006B000216000E00120A84201DD471B00E0002787
:1006C000A1697A1902EB0900081AA0612078C00616
:1006D00002D42046FFF7A5FF002608E0D4E9012157
:1006E0001AF806009047206A401C761C20624E458E
:1006F000F4DB2078C0060AD52046FFF792FF06E01B
:10070000D4E9012130209047206A401C2062381E25
:10071000A7F10107F4DC07E0D4E9012118F805008E
:100720009047206A401C2062281EA5F10105F3DCD9
:100730002046FFF78CFF2078000602D50220BDE896
:10074000F0870120FBE711680268006A530501D5B4
:1007500008700AE0D30501D5088006E0130603D52A
:10076000C217C1E9000200E008600120704770472D
:100770002DE9FF4F0C461E464FF0FF378BB0D2E9F4
:100780000001DDF860800A908A46C1F30A5505B978
:100790003D46002108464FF00000BAF1000F00F47A
:1007A000400005DA00EB80004FF4400101EA500000
:1007B0004FEA9059B9F1010F00DDB9460A9850EAA5
:1007C0004A000ED044F61050A5F2FF3545432F14D1
:1007D000B8F1000F1ED07542291E1EDDC9F10002BE
:1007E0001CE0B8F1010F4FF0000001D0302103E010
:1007F000F24305E02154401CB042FBDB30460022AE
:10080000002121540B99C1F80880C1E900200FB0E4
:10081000BDE8F08FBD1B6D1CDEE74A4600DA694279
:1008200006A800F02BFD06AB93E8070003AB83E8B6
:10083000070050460A9900F036FE8DE80700A0F543
:1008400000501F3800900398002D0ADD42F21F016E
:100850004A460844002303A90390684601F09FF824
:1008600009E0A0F500504A461F38002303A9039071
:10087000684601F0A9F88DE807000004000C03D0D9
:100880004FF0FF30410800E01046B8F1000F03D0F0
:100890000022009215461EE0751E05D400F0D4FA21
:1008A000303262556D1EF9D5B3460122084302D09D
:1008B00000227F1C04E02078302801D100227F1E16
:1008C000002A099784D01DE0112D07DA00F0BCFA48
:1008D000303262556D1C50EA0102F5D1084302D056
:1008E0000098C8B10EE00021681E05E0235C625C40
:1008F00063542254401E491C8142F7DBAB46A81BBF
:10090000401E0990002004F80B000B98099AC0F8CB
:100910000880C0E9002B7AE711264FF0000857E75E
:100920002DE9F04F88460446D21D22F0070191B010
:10093000D1E90001CDE90A0103F05BFD02460B9805
:10094000C00F01D02D2007E02068810701D52B20A2
:1009500002E0202101EAC000032A099001D0072A01
:1009600005DB03464146204600F032FC0BE12078CF
:10097000800601D5E06900E00620B8F1650F8146E8
:1009800006D0B8F1660F18D0B8F1670F70D131E01A
:100990000020B9F1110F009001DB112301E009F1F2
:1009A00001030AAA01A90CA8FFF7E2FEDDE90C7019
:1009B000002609F10105834647E001204B460090DF
:1009C0004FF000470AAA01A90CA8FFF7D1FEDDE904
:1009D0000DB00C995D46002610B909F101000D1803
:1009E000B9EB050003D4C0F1FF3609F10105A5EB11
:1009F00009002BE0B9F1010F01DA4FF001090020E5
:100A0000B9F1110F0090484601DD112300E00346C3
:100A10000AAA01A90CA8FFF7ABFEDDE90C704D4650
:100A200000268346207800070AD4AB4500DA5D46ED
:100A300001A8012D04DD411911F8011C302907D04E
:100A40004F4502DA17F1040F04DA012082460FE065
:100A50006D1EEEE7002F02DCED1B3E4403E0781C28
:100A6000A84200DD7D1CB81B00F1010A4FF00047D1
:100A70002078000703D4AA4501DB4FF0FF3A00219C
:100A8000B7F1004F0DF143088DF8431024D0022038
:100A90002B23002F01DA7F422D230A21021EA0F111
:100AA000010000DC5FB197FBF1FC97FBF1F201FB69
:100AB0001C7C17460CF1300C08F801CDEEE7A8F1CC
:100AC000010003702188090501D5452100E0652159
:100AD000A0F1010800F8011C09980FA9A1EB080773
:100AE000FF1D00B10120411901EBEA70A1693844F2
:100AF000081A401EA0612078C00602D42046FFF7E5
:100B000090FD099828B1D4E901219047206A401C42
:100B100020622078C00622D52046FFF782FD1EE025
:100B2000002E04DBB34502DD01A8805D00E030202B
:100B3000D4E901219047206A401C2062761CAAF16A
:100B400001005FEA000A0AD100F07AF9C068016882
:100B5000405CD4E901219047206A401C2062281E95
:100B6000A5F10105DCDC07E0D4E9012118F8010B4F
:100B70009047206A401C2062381EA7F10107F3DC71
:100B80002046FFF764FD032011B041E601694A1CCD
:100B900002610878704700B58FB0CDE901310021BE
:100BA000059105497944CDE9031011466846FFF7E0
:100BB000F7FB0FB000BD0000E5FFFFFF0A6802F879
:100BC000010B0A607047D1E900239A4202D2531CFC
:100BD0000B601070704710B5436913B1AFF300801C
:100BE00001E0FFF777FB012010BD127800F124012E
:100BF0000A7000224A700122EDE711684FF0FF32BF
:100C0000E9E700002DE9FF5F15468A460446DFF854
:100C1000AC80F8440027D8E900103E46CDE900102A
:100C200010E03AF816106A4602A800F099FB411C41
:100C300007D02178890603D5E269391891420DD889
:100C40000744761C2078800602D5E069B84205DDAD
:100C5000AE42E6DB3AF816000028E2D1A069C01BDC
:100C6000A0612046FFF7DDFCD8E90010CDE90010B7
:100C7000002017E03AF818106A4602A800F070FB4E
:100C8000B0F1FF3F81460BD000250DF1080B05E0C8
:100C9000D4E901211BF8050090476D1C4D45F7D3A1
:100CA00008F10100B0428046E4DB206A384420624B
:100CB0002046FFF7CCFCBDE8FF9F0000F23D00009E
:100CC0002DE9F0418046D21D22F007020025D2E92D
:100CD0000002F52915A614D0011E72F1000106DAF2
:100CE0000023D0EB030063EB020211A608E0D8F862
:100CF00000108B0701D50FA602E0490701D50EA60B
:100D000001251146002408F1240704E000F09CF8B6
:100D100030323A55641C50EA0102F7D12B46324674
:100D200021464046BDE8F041FFF7B4BC000000009A
:100D30002D0000002B0000002000000030B4002136
:100D400000F1240408E002F00705D208303542EA39
:100D50004372DB086554491C52EA0305F3D1046869
:100D6000002310A2250707D5A40600D421B1C46929
:100D700001230DA2641EC46130BCFFF78BBC10B50B
:100D8000044621461068FFF77CFC02462046BDE879
:100D900010400023D2E7D21D22F00701D1E9002341
:100DA000CCE700000000000030000000F0B40D4669
:100DB0000188090502D5214C7C4402E01F4C7C448B
:100DC0000E34002100F1240608E002F00F0712099A
:100DD000E75D42EA03721B097754491C52EA030794
:100DE000F3D102780023120704D5702D06D009B183
:100DF000022311342246F0BCFFF74CBC012310340F
:100E0000F8E770B504460D4621461068FFF739FC37
:100E1000024629462046BDE870400023C6E7D21DA1
:100E200022F00703D3E90023C0E70368126843F008
:100E3000200303600823C3610023B7E7543C00008C
:100E400000487047F412002030B5B0F10A024FEAB2
:100E5000900E71F100034EEA817EB0EB0E0061EB63
:100E600091014FEA101E4EEA017E10EB0E0041EB9D
:100E700011114FEA102E4EEA016E10EB0E0041EBFD
:100E800011214FEA104E4EEA014E10EB0E0041EBDD
:100E90001141401841F100014FEAD00040EA417091
:100EA0004FEAD10110EB80054FEA810444EA9074C7
:100EB00044EB01046D1944EB0404521BA3414FF0B1
:100EC000000348BF0A3200D530BD401C41F100018B
:100ED00030BD00002DE9F04F04460D46D21D22F032
:100EE000070089B0D0E900974846394603F081FAF7
:100EF0000246F80F01D02D2307E02068810701D5B5
:100F00002B2302E0202101EAC0038DF820300BB131
:100F1000012000E00020032A824601D0072A04DBDA
:100F20002946204600F054F93FE12078800601D49C
:100F30000D2500E0E569C7F30A560D2D49DA0021B9
:100F40004FEA175B08464FF00000002F00F4400006
:100F500007DA00EB80004FF4400100EBD07001EAAB
:100F600060008115012901DD4FF0FF3100224FEAB9
:100F7000850CBCF1180F06D31346ACF118004FF0E6
:100F80008052C24003E04FF4801323FA0CF30CF1BB
:100F90000C0CBCF1200F04D3ACF1200C09FA0CF0BE
:100FA00001E007FA0CF000294FF0004801DD18B904
:100FB0000FE00ED140450CD319EB02095F4121B976
:100FC000404502D19F4329EA0209BBEB175F00D0DD
:100FD000761C2088000502D57B48784402E07A48D8
:100FE0007844193808AA302302F80A30037C0AF141
:100FF0000101002E0AF1020A53546A4602DC4FF046
:10100000300101E04FF031014FF001088DF8001080
:1010100002D0A6F2FF3603E059EA470100D06B4E3A
:10102000002D02DC2178090704D54FF002082E219B
:101030008DF80110C44600210BE0C7F303433F01C4
:10104000C35C491C6D1E02F80830052908F101082F
:1010500001DA002DF1DC00210CE000EB1973491CD2
:101060001B786D1E082902F808304FEA091908F1AB
:10107000010801DA002DF0DC21688B0602D516E0AC
:10108000A8F10108E04505DD02EB080313F8013C77
:10109000302BF5D0B8F1000F09DD02EB080313F88F
:1010A000013C2E2B03D1090701D4A8F10108002D22
:1010B00005DD3E2102F808106D1E08F10108407C94
:1010C000002E02F8080008F1010804DA2D2076420B
:1010D00002F8080002E02B2002F808000A214FF471
:1010E0007A70864208F101080BDB96FBF0F330338F
:1010F00002F8083096FBF0F308F1010800FB1366D4
:1011000001E0642E0CDB642096FBF0F3303302F830
:10111000083096FBF0F308F1010800FB136601E0CC
:101120000A2E06DB96FBF1F0303002F8080008F1D9
:10113000010896FBF1F001FB1060303002F8080066
:10114000A16908F1010808EB050202EB0A00081A80
:10115000A0612078C00602D42046FFF762FA216A17
:1011600008AE01EB0A00206204E0D4E9012116F880
:10117000010B9047BAF1010AF7D22078C00602D5D8
:101180002046FFF74EFA6E4609E016F8010B3E289E
:101190000FD0D4E901219047206A401C2062B8F1A9
:1011A0000108F2D22046FFF752FA09B00320BDE849
:1011B000F08F206A2844206203E0D4E90121302026
:1011C00090476D1EEBD3F8E76D3A000002FCFFFF7D
:1011D0002DE9F0411F46044603260168072A01F461
:1011E000006004DB08B116A505E016A503E008B110
:1011F00015A500E015A521F010002060A069C01E13
:10120000A0610FB1401EA0612046FFF70AFA4FB15E
:10121000D4E9012138469047206A401C2062C01C56
:10122000206206E0206AFAE7D4E9012115F8010BF3
:101230009047761EF8D22046FFF709FABDE8F08104
:101240004E414E006E616E00494E4600696E66006A
:1012500010B5436913B1AFF3008001E0FFF7D2FC92
:10126000012010BD128800F1240182840022C28472
:101270000122EDE711684FF0FF32E9E72DE9F04771
:10128000814616468AB0354878440DC88DE80D0071
:1012900032487844801C03AC0DC884E80D0041F648
:1012A0009B300844372190FBF1F290FBF1F5A5F15A
:1012B000800501FB12041B3C02D56442012000E0C2
:1012C0000020DFF898A080460027FA44AAF1BE0A61
:1012D0000EE0E0070AD03246684607EB47010123DB
:1012E0000AEB810100F070FB8DE8070064107F1CA1
:1012F000002CEED1194F7F44AE3F19E0E80715D01E
:1013000007EB04100DF1180A90E80E008AE80E00B1
:10131000C068F04201D1981908903246012306A90D
:1013200003A800F051FB03AB83E807006D10641CB9
:10133000002DE3D14FF0010332466946B8F1000FAA
:1013400003A802D000F02BFB01E000F03DFBC9E94F
:101350000001C9F808200AB0BDE8F0875038000045
:1013600070B516460C46054600F044F8036893F83D
:101370000101012806D0FF2C0FD8185D68B10120AB
:101380002C7070BDD3F807013246214603F20713D3
:1013900003442846BDE8704018474FF0FF3070BD49
:1013A00000487047D41200207546FFF7F9FFAE469B
:1013B00005006946534620F00700854618B020B561
:1013C000FEF746FFBDE820404FF000064FF0000753
:1013D0004FF000084FF0000B21F00701AC46ACE8DD
:1013E000C009ACE8C009ACE8C009ACE8C0098D464A
:1013F0007047000010B5FFF723FD001D10BD00BFB2
:10140000F131000010B50446AFF300802046BDE87E
:101410001040FEF708BF00004FF0013C50F8042BCD
:1014200051F8043B9A4221D1A2EB0C03934313EAF7
:10143000CC1317D150F8042B51F8043B9A4215D124
:10144000A2EB0C03934313EACC130BD150F8042BFB
:1014500051F8043B9A4209D1A2EB0C03934313EADF
:10146000CC13DBD04FF00000704700BFD01A01BA98
:10147000B1FA81F101F0180122FA01F0CB40C1F17B
:101480002001DBB2C0B2C01A2CFA01F3D11A914389
:1014900011EAC311E6D1704701491820ABBEFEE73F
:1014A0002600020070475FEA400C08BF91F0000F71
:1014B0004FEA8C234FEAC12243EA51514FEA1C50B4
:1014C00018BF00F5F0404FEA300018BF41F000416E
:1014D0005FEA6C5C00F02980BCF1FF3F08BF40F080
:1014E00080407047130C06BF12044FF0100C4FF0F1
:1014F000000C130E04BF12020CF1080C130F04BFF2
:1015000012010CF1040C930F04BF92000CF1020CB9
:10151000D30F04BF52000CF1010C11464FF0000232
:10152000A0F11F00A0EB0C00704711F0004F08BFA6
:10153000704731F000413FF4D5AF0B0C06BF0904F2
:101540004FF0100C4FF0000C0B0E04BF09020CF111
:10155000080C0B0F04BF09010CF1040C8B0F04BF26
:1015600089000CF1020CCB0F04BF49000CF1010CF7
:10157000CCF12003A0EB0C0022FA03F302FA0CF2E8
:1015800041EA030100F10100704720F07F4C80EA3E
:10159000030023F07F47ACEB070303F57C5300F017
:1015A000004003F1FF032DE980494FEA154B09B4D0
:1015B0004FEA144325EA0B4E24EA03480FF20426AF
:1015C00006EB132749083E785FEA320203FB066701
:1015D000C7F5000707FB06F64FEA54374FEAD64631
:1015E00006F1020607FB066CCCF1005C4FEA1C47D3
:1015F0002CEA074C07FB06F40CFB06F504EB15463A
:101600004FEA961634BF00204FF000404FEAD13722
:1016100006FB07FC4FEA1C4C0CFB0BF7D21B03FB31
:101620000CF761EB07010CFB0EF7B0EB074072EB18
:1016300017420CFB08F734BFA2EB0742B2EB07429C
:1016400061EB17414FEA0C444FEA910706FB07FC98
:101650004FEA1C4C0CFB0BF7B0EBC74072EB573258
:1016600003FB0CF734BFA2EBC742B2EBC74261EBFE
:1016700057310CFB0EF7B0EBC70072EB57720CFB47
:1016800008F734BFA2EBC702B2EBC70261EB577198
:10169000039F4FEA816141EA921104EBCC044FEAC7
:1016A000D1374FEA826206FB07FC42EA90124FEA0A
:1016B00080604FEA1C4C0CFB0BF7D21B03FB0CF7B2
:1016C00061EB07010CFB0EF7B0EB074072EB174222
:1016D0000CFB08F734BFA2EB0742B2EB074261EB09
:1016E00017414FEA8C554FEA910704EB9C2406FB07
:1016F00007FC4FEA1C4C0CFB0BF7B0EBC74072EB3E
:10170000573203FB0CF734BFA2EBC742B2EBC74220
:1017100061EB57310CFB0EF7B0EBC70072EB577261
:101720000CFB08F734BFA2EBC702B2EBC70261EBB8
:10173000577115EB4C254FEA816141EA92114FEA4E
:1017400082624FEAD13742EA901206FB07FC44F16D
:1017500000044FEA80604FEA1C4C0CFB0BF7D21BD5
:1017600003FB0CF761EB07010CFB0EF7B0EB074036
:1017700072EB17420CFB08F734BFA2EB0742B2EB47
:10178000074261EB174115EB1C154FEA813141EA25
:1017900092414FEA823242EA90424FEA80304FEA69
:1017A0000C7644F1000448EA03434EEA0B484FF03C
:1017B000000EB2EB080C71EB030724BF62463946FA
:1017C0004EEB0E0E4FF0000B0018524149414BEB0F
:1017D0000B0BB2EB080C71EB03077BF1000B24BF82
:1017E000624639464EEB0E0E4FF0000B0018524188
:1017F00049414BEB0B0BB2EB080C71EB03077BF190
:10180000000B24BF624639464EEB0E0E51EA02072A
:1018100018BF46F0010616EB0E7655F1000254F1A2
:10182000000103D5BDE88901BDE80088BDE8890154
:10183000BDE80048B619524141EB0101A3F1010393
:10184000704780807F7E7D7C7B7A7978777676752D
:101850007473727171706F6E6E6D6C6C6B6A6A69A5
:101860006868676666656464636362616160605F3F
:101870005F5E5E5D5D5C5C5B5B5A5A5959585857B8
:101880005756565555555454535352525251515020
:1018900050504F4F4F4E4E4D4D4D4C4C4C4B4B4B73
:1018A0004A4A4A49494948484847474747464646B9
:1018B00045454544444444434343434242424241F4
:1018C0004141002B9C4630D477002BD01CB54FEA09
:1018D000370703B44FF010004FF01001BAF1000FBA
:1018E00006D0BCF1000FDCBF40F0080040F008015A
:1018F0004FF000000FBCBDE810400BF1010BBBF135
:10190000010F08BF5FEA170722BF12F1010211F1B0
:1019100001014FF0004143F1000300F0004043EAB1
:1019200000007047F9D35708D0E746EA064613F19E
:10193000400F4FEA16461FDD13F1200FDFBF16439D
:101940000A46002120335B42BED0C3F1200746EA9D
:10195000064602FA07F74FEA164646EA0706C3F1BB
:10196000200722FA03F201FA07F721FA03F14FF0F8
:10197000000342EA0702A7E746EA020646EA0646ED
:101980004FEA164646EA0106BCBF46EA0646360C52
:101990004FF000034FF000024FF0000194E72DE9F3
:1019A000804C9A46934670B491E8380007C831EAF3
:1019B000400C48BF34EA430C03D5FFF7E6FDFFF7C0
:1019C00080FFF0BCBDE8008C2DE9804C9A46934620
:1019D00070B491E8380007C810F0804F08BF13F0CA
:1019E000804F03D100F005F8FFF76BFFF0BCBDE8B6
:1019F000008C20F07F4780EA030023F07F4C07EB48
:101A00000C03A3F57C5300F00040A3F1FE0392F019
:101A1000000F00F0B38095F0000F00F077802DE903
:101A200001494FEA11404FEA144621EA004800FB01
:101A300006FC24EA064708FB06F607FB08F800FB4D
:101A400007F718EB06484CEB164C4FEA124B18EB15
:101A500007484FEA15464CEB174022EA0B4E0BFBAA
:101A600006FC25EA06470EFB06F607FB0EFE0BFBFF
:101A700007F71EEB064E4CEB164C4FF000061EEB24
:101A8000074E4CEB174B18EB0B0840F1000018EB1E
:101A90000E0B58EB000840F100008F1A4FF00001C8
:101AA0003CBFC943661B14BFB5EB040C00213CBF0F
:101AB000C943F61B4FEA17444EEA8E0E27EA044547
:101AC0004FEA1C4704FB07622CEA074C05FB07F7AB
:101AD0000CFB05F604FB0CFC16EB074642EB174229
:101AE00016EB0C4642EB1C421BEB060658EB0202BF
:101AF000414146EA9E0601D5BDE80189B619524129
:101B000041EB0101A3F10103BDE801894FEA14454E
:101B10004FEA114724EA054621EA074C05FB07F482
:101B200006FB07F70CFB06F105FB0CFC11EB07416C
:101B300044EB17444FEA124711EB0C4144EB1C44B1
:101B400022EA074C05FB07F206FB07F70CFB06F63B
:101B500005FB0CFC16EB074642EB174216EB0C4656
:101B600042EB1C456A1854F1000148BF7047B61992
:101B7000524141EB0101A3F10103704795F0000FC1
:101B800037D04FEA11424FEA144721EA024624EACD
:101B9000074C02FB07F106FB07F70CFB06F402FB00
:101BA0000CFC14EB074441EB17414FEA154714EBCB
:101BB0000C4441EB1C4125EA074C02FB07F506FBF0
:101BC00007F70CFB06F602FB0CFC16EB074645EB91
:101BD000174516EB0C4645EB1C42121951F100015A
:101BE00048BF7047B619524141EB0101A3F101030F
:101BF00070474FEA14454FEA114724EA054621EAA7
:101C0000074C05FB07F106FB07F70CFB06F24FF04C
:101C1000000605FB0CFC12EB074241EB174112EBEF
:101C20000C4251EB1C4148BF7047921841EB010137
:101C3000A3F101037047000070B504460068816895
:101C4000C943C90717D1816821F00101816000F003
:101C50005DFF05460AE000BF00F058FF401B022868
:101C600004D920688068C043C00706D02068806817
:101C7000C043C007F0D0002070BDA06A40F0100043
:101C8000A062E06A40F00100E062012070BD10B582
:101C90000146406A826A12F0500F05D0006A026B5A
:101CA000BDE8104008461047816A41F40071816226
:101CB00001688968C1F3424107290CD1017B51B900
:101CC000816A21F480718162816AC90403D4816AC6
:101CD00041F00101816200F0A3FA10BD10B5406A25
:101CE000816A41F040018162C16A41F00401C16230
:101CF00000F0EBFA10BD10B5406A00F0E5FA10BD37
:101D0000F8B500260446009600688168C943C907F3
:101D10002DD0816841F001018160164816490068A4
:101D2000B0FBF1F000E0401E00900028FBD100F075
:101D3000EDFE054616E000BF00F0E8FE401B02285D
:101D400010D920688068C043C0070BD0A06A40F05B
:101D50001000A062E06A40F00100E06284F82460B4
:101D60000120F8BD20688068C043C007E4D100208E
:101D7000F8BD0000B400002040420F0030B5ADF2C5
:101D8000044D4FF480616846FEF721FC4FF4FA558C
:101D9000EC100223642256A156A000F029F9022378
:101DA000224653A155A000F023F958A35AA25DA1E1
:101DB0006846FEF779FA02232A464DA1684600F0EC
:101DC00017F96846FEF7C2FB01466846FEF7FFFBBF
:101DD00058A25CA16846FEF767FA02232A4644A18E
:101DE000684600F005F900286AD06846FEF7AEFBA9
:101DF00001466846FEF7EBFB4EA256A16846FEF789
:101E000053FA4FF4FA7502232A4639A1684600F0C6
:101E1000EFF86846FEF79AFB01466846FEF7D7FBE7
:101E200040F25B724FA16846FEF73EFA02232A4653
:101E30002FA1684600F0DCF86846FEF787FB0146F4
:101E40006846FEF7C4FB02232A4629A149A000F0F8
:101E5000CFF84CA24FA16846FEF726FA02232A4685
:101E600023A1684600F0C4F86846FEF76FFB014600
:101E70006846FEF7ACFB43A24AA16846FEF714FA97
:101E800002232A461AA1684600F0B2F86846FEF717
:101E90005DFB01466846FEF79AFB46A248A16846EC
:101EA000FEF702FA02232A4611A1684600F0A0F8C4
:101EB00003232A460EA146A000F09AF838B10CE0A0
:101EC000022322460AA145A000F092F861E702230E
:101ED000224607A141A000F08BF84FF4FA6000F011
:101EE000CFFC4249012088700DF2044D30BD000046
:101EF0004F4B000041540D0A0000000041542B5785
:101F00004D4F44453D312C310D0A000043583631C8
:101F10003233343500000000434D43432D3134301B
:101F20003700000041542B574A41503D25732C2562
:101F3000730D0A003139322E3136382E31302E31C0
:101F40003500000041542B50494E473D25730D0A82
:101F50000000000041542B4D5154543D312C257349
:101F60000D0A000041542B4D5154543D322C256430
:101F70000D0A000041542B4D5154543D332C310D6A
:101F80000A000000536D6F6B65466C616D657330C0
:101F90003100000041542B4D5154543D342C2573D5
:101FA0000D0A000041542B4D5154543D352C2573DE
:101FB0000D0A000031323334353637380000000066
:101FC00041542B4D5154543D362C25730D0A0000BD
:101FD00041542B4D5154540D0A00000041542B52D2
:101FE0004553544F52450D0A0000000000000020E8
:101FF0002DE9F0471C469046894600F037F8002648
:102000000E4D4FF4806712E0404600F039FC28780E
:1020100001280CD12E7049460948FEF785FA10B107
:102020000120BDE8F08739460548FEF7AEFA641E88
:10203000E4B2E9D22E700020F3E700000000002097
:10204000B800002010B54FF480620549054801F042
:10205000D4FA05480068016821F00401016010BD50
:10206000B80000207C1100204C1200200FB470B585
:102070000B4D68780028FDD005AB40F201410948BE
:10208000049AFEF7F7F8044682B20026054906488E
:1020900001F044FD6E70204670BC5DF814FB00003A
:1020A00000000020B80400207C110020FEE70000A2
:1020B000014800F0D5BA0000A80C0020014800F04B
:1020C000CFBA000008120020014800F0C9BA000091
:1020D000C4110020014800F0C3BA00004C120020D7
:1020E000014800F0BDBA00009012002030B590F811
:1020F00040500124AC40C56B6C6004686360436869
:10210000102B036803D099600068C26030BD9A60EC
:102110000068C16030BD70474FF4005000F0F0BB64
:1021200072B6FEE7F8B50024009490F82420254606
:10213000012A12D0012280F824204A681F23072A8E
:102140000DD20668776B521E02EB820293409F43CA
:102150000B6893401F43776319E00220F8BD0668BF
:102160000D2A0AD2376BD21F02EB820293409F43A3
:102170000B6893401F43376309E0F76A0D3A02EB9F
:10218000820293409F430B6893401F43F7620A68A3
:10219000072306680A2A0AD3F7680A3A02EB4202C2
:1021A00093409F438B6893401F43F76008E0376973
:1021B00002EB420293409F438B6893401F43376179
:1021C0000A68102A01D0112A20D1124B02689A42C3
:1021D00017D193681B0219D4936843F400039360EA
:1021E0000968102912D10C490C4A0968B1FBF2F1B7
:1021F00001EB8101490000E0491E00910029FBD15B
:1022000004E0816A41F020018162012480F82450B9
:102210002046F8BD00240140B400002040420F00D9
:1022200070B51F49884239D100211E4A084600BFB7
:1022300052F82030401C1944F028F9D3F020B1FBAB
:10224000F0F002F0DFFA184902F0F0FA174902F054
:1022500017FA174902F0EAFA16490546B0F1824F1B
:1022600001DD012000E000200870134800780028FC
:1022700014D012480446FEF769F901462046FEF7DD
:1022800084F9284602F0D0F902460B460CA12046FC
:10229000FEF70AF8BDE8704001F0AEBD70BD000069
:1022A000780C0020B80800203333534000F07F45FD
:1022B00000002041A3000020020000203500002083
:1022C000252E326600000000704770472DE9F0416E
:1022D0004FF0000704003D467ED0A06A002628B9D2
:1022E000E66284F82460204600F07EF82046FFF77E
:1022F000A3FCA16AC90600D420B1A06A40F0100076
:10230000A06269E0A16A21F4885141F00201A16252
:102310006268E169237B0A4347EA43010A43A168F3
:102320004FF48077B94209D0012907D05FF000014E
:1023300094F814C0BCF1010F02D00AE03946F7E767
:10234000F3B1A36A43F02003A362E36A43F00103FD
:10235000E3622368D3F804C02CF4694C4CEA010C06
:10236000C3F804C021688B68DFF870C003EA0C036F
:1023700013438B60A168B9420BD0012909D00CE04E
:10238000DFF85CC0A3690CEB43330B4343F40061FB
:10239000DFE7218A0D05A5F580152168CB6A23F4B6
:1023A00070032B43CB62216889680E4B1940914220
:1023B00008D1E662A16A21F0020141F00101A162A7
:1023C000BDE8F081A06A20F0020040F01000A06299
:1023D000E06A40F00100E0620120F1E7FDF7E1FF73
:1023E00000E0FFFFFE0E1FFF70B586B00025064619
:1023F00000950195029503950068194988422DD1F1
:102400001849886940F400708861886900F4007098
:102410000490886940F0040088618869694600F08A
:102420000400049001200090032001900E4800F069
:1024300073FA0F4C0D48C4E900058020C4E902502E
:10244000800020618000C4E905052046E56100F0B8
:10245000B1F908B1FFF764FE3462666206B070BD80
:102460000024014000100240000801400800024022
:10247000A80C00202DE9F047894604463B49006836
:102480003B4F0E1D9046884201D0B84207D13068BC
:1024900010F4702F03D001252846BDE8F08794F88A
:1024A000240001280CD0012084F824002046FFF7E6
:1024B00027FC05004FF0000004D084F82400EBE76F
:1024C0000220EAE7A16A40F60162914341F480717B
:1024D000A1622168B94218D1326812F4702F14D069
:1024E000A16A41F48011A1623168490505D5A16A4C
:1024F00021F4005141F48051A162A16AC9040AD5B6
:10250000E16A21F00601E16206E0A26A22F480128B
:10251000A2624968E9E7E06284F82400216A15486C
:102520008862216A1448C862216A144808632168D5
:102530006FF0020008602068816841F4807181605A
:10254000216843464A464C31206A00F061F9206810
:102550008168C1F342410729816803D041F48011A9
:10256000816099E741F4A001FAE7000000240140EE
:10257000002801408F1C0008F71C0008DD1C000823
:1025800010B590F821100022022905D004218163A2
:1025900080F82020012010BD01680B6823F00E0395
:1025A0000B6001680B6823F001030B6090F840306A
:1025B000C46B012101FA03F3636080F8211080F8F5
:1025C0002020104610BD000010B590F82110002406
:1025D000022903D00421816301243DE001680A68D7
:1025E00022F00E020A6001680A6822F001020A6005
:1025F0001A4A0168914201D1012121E0174A14329F
:10260000914201D110211BE0144A2832914201D19C
:10261000891515E0114A3C32914201D189140FE02D
:102620000E4A5032914202D14FF4803108E00B4AF9
:102630006432914202D14FF4801101E04FF0807179
:10264000064A083A5160012180F82110002180F8E3
:102650002010416B01B18847204610BD08000240A0
:102660002DE9F05FC16B0C6801680B68D0F840C0C1
:10267000042202FA0CF2494DDFF824A1494E4A4FD8
:10268000DFF828B1DFF828E122422CD05A072AD5FA
:102690000A68920603D40A6822F004020A600168FC
:1026A000A94201D1042219E0514501D1402215E08F
:1026B000B14202D14FF4806210E0B94202D14FF42E
:1026C00080420BE0594502D14FF4802206E071456B
:1026D00002D14FF4800201E04FF080622F490839A7
:1026E0004A60C16A3BE04FF0020808FA0CF818EAA9
:1026F000040F4FF000094FF0010235D05FEA8378F4
:1027000032D50B689B0605D40B6823F00A030B60D7
:1027100080F821200168A94201D1022219E0514527
:1027200001D1202215E0B14202D14FF4007210E035
:10273000B94202D14FF400520BE0594502D14FF497
:10274000003206E0714502D14FF4001201E04FF073
:102750000072124908394A6080F82090816A002985
:102760001AD0BDE8F05F0847082505FA0CF52542A8
:1027700012D01B0710D50B6823F00E030B6090F8E6
:102780004010C36B02FA01F15960826380F8212086
:1027900080F82090016BE2E7BDE8F09F080002405E
:1027A0001C00024030000240440002405800024039
:1027B0006C00024030B528B308C8134914221944EC
:1027C000B1FBF2F18900C1631049816302214177B5
:1027D0001A6843F6F0718A43D0E900142143D0E926
:1027E00002452C4321430469214344692143846900
:1027F000214311431960002141630122427701778F
:10280000084630BD012030BDF8FFFDBF000002408A
:1028100070B5044690F82000002501280CD0012056
:1028200084F8200094F821600020012E06D084F85E
:1028300020000225284670BD022070BD022684F8C3
:102840002160A0632068066826F001060660204625
:10285000FFF74CFCE06A00282068016802D041F0D4
:102860000E0106E021F0040101602068016841F0DA
:102870000A0101602068016841F001010160D9E7A7
:1028800070B5044600F042F90546601C02D00448C9
:102890000078044400F03AF9401BA042FAD370BD1E
:1028A000A800002070B54FF40054A0421AD110487F
:1028B0000546FDF74BFE01462846FDF766FE0D4E28
:1028C0002146304600F018F968B100220AA12846D6
:1028D000FDF7EAFC2146304600F00EF9074920B129
:1028E0000020087070BD0122F0E70120F9E7000028
:1028F00085000020000C014025640000A30000209A
:10290000044910B50A68024202D00860FFF7CAFF06
:1029100010BD0000140401402DE9F84FDFF8B89114
:102920000024A9F1040B23460F2709F1040AABF197
:10293000040EC9E00125A5402A40AA427DD1674E78
:10294000D1F804C0ACEB0608B44532D014DCBCF1BD
:10295000030F3AD009DCBCF1000F2AD0BCF1010F03
:102960001CD0BCF1020F31D11DE0BCF1110F17D00A
:10297000BCF1120F2AD119E0B8F5881F19D006DC76
:10298000B8F5803F15D0B8F5801F1FD111E0B8F51C
:10299000001F0ED0B8F5041F18D10AE0CB6815E06F
:1029A000CB681B1D12E0CB6808330FE0CB680C33FB
:1029B0000CE08B682BB1012B4FF0080303D045616D
:1029C00004E0042302E0056100E00023FF2A01D8AF
:1029D000064601E000F104064FEA840501D9A5F19D
:1029E0002005D6F8008007FA05FC28EA0C0803FA4F
:1029F00005F548EA0508C6F800804D68ED0062D587
:102A0000374DAE6946F00106AE61AD6924F00306AC
:102A100005F001050095334D06EB050CDCF8085078
:102A2000A607360F07FA06F825EA0805DFF8B8808A
:102A3000404503D14FF0000817E044E0DFF8AC80D8
:102A4000404502D14FF001080FE0DFF8A480404577
:102A500002D14FF0020808E0DFF89880404502D12B
:102A60004FF0030801E04FF0040808FA06F848EABE
:102A70000508CCF808804D68D9F80060ED024D4695
:102A800001D5164300E096432E604D68DAF80060E9
:102A9000AD02554601D5164300E096432E604D68C1
:102AA000DBF80060AD035D4601D5164300E09643B8
:102AB0002E604D68DEF80060ED03754601D51643C3
:102AC00000E096432E60641C0D682A46E5407FF4C2
:102AD00031AFBDE8F88F000008040140000011107C
:102AE000001002400000014000080140000C0140BD
:102AF00000100140001401408068084000D001200F
:102B000070470AB1016170470904FBE7014880681A
:102B100070470000A8000020024881680278114434
:102B200081607047A8000020074810B5016841F097
:102B300010010160032000F075F8002000F006F895
:102B400000F024F8002010BD0020024070B50D4DAB
:102B500004464FF47A712878B1FBF0F00A4909680D
:102B6000B1FBF0F000F052FB48B9102C07D2002264
:102B70002146501E00F036F800206C6070BD012028
:102B800070BD0000A8000020B40000200C4808B56B
:102B9000816941F001018161816901F001010091C8
:102BA000C16941F08051C161C06900F0805000905E
:102BB0000448416821F0E06141F00071416008BDC6
:102BC0000010024000000140002809DB00F01F0255
:102BD000012191404009800000F1E020C0F800117F
:102BE00070470000F0B40E4B1B680C46C3F3022381
:102BF000C3F10705042D00D90425191D072901D2A9
:102C0000002300E0DB1E012606FA05F1491E2140E3
:102C100099409E40761E16403143F0BC01F0FDBB4A
:102C20000CED00E0064900F0070208684FF6FF03CC
:102C3000184040EA0220034A104308607047000031
:102C40000CED00E00000FA052DE9F8430546007898
:102C5000354CC00754D0E0690026C00008D4E069B4
:102C600040F08050E061E069012600F08050009063
:102C70002E480168C90512D40168804641F480716C
:102C80000160FFF743FF074605E000BFFFF73EFF87
:102C9000C01B642823D8D8F80000C005F6D5206AE8
:102CA00010F4407021D0A98801F4407181421CD0F9
:102CB000206A1F49012220F440700A6000220A6045
:102CC0002062C00711D0FFF721FF074641F2883884
:102CD00008E000BFFFF71AFFC11B414502D90320DE
:102CE000BDE8F883206A8007F4D5206A696820F47B
:102CF0004070084320621EB1E06920F08050E0611E
:102D00002878800705D56068A96820F4404008430A
:102D100060602878C00605D56068E96820F4800006
:102D2000084360600020DBE70010024000700040B4
:102D3000400442422DE9F0470F46050061D0434E62
:102D4000306800F00700B84209D2306820F0070070
:102D500038433060306800F00700B84251D128682D
:102D60003B4C810712D5400703D5606840F4E06012
:102D700060602878000703D5606840F460506060A8
:102D80006068A96820F0F000084360602878C007F8
:102D900028D06868012810D02168022810D089073F
:102DA00000292EDA616821F0030101436160FFF719
:102DB000ADFE804641F288390DE021688903EFE7D6
:102DC0008901EDE7FFF7A2FEA0EB0801494502D912
:102DD0000320BDE8F0876068696800F00C00B0EB84
:102DE000810FEFD1306800F00700B8420BD930688E
:102DF00020F0070038433060306800F00700B84228
:102E000001D00120E5E72878400705D56068E9682A
:102E100020F4E060084360602878000706D5606809
:102E2000296920F4605040EAC100606000F038F881
:102E30006168084AC1F30311515CC8400649086043
:102E400006480068FFF782FE0020C2E7002002402B
:102E500000100240DE490008B4000020AC00002051
:102E60000448054900684968044AC1F30221515CDD
:102E7000C8407047B400002000100240EE4900082E
:102E80000448054900684968044AC1F3C221515CFD
:102E9000C8407047B400002000100240EE4900080E
:102EA0000E4A51680E4801F00C03042B11D0082B78
:102EB0000FD10C48C1F38343C903C05C0AD55168E4
:102EC000084AC1F34041921E515C054A5043B0FB91
:102ED000F1F0704704494843704700000010024079
:102EE00000127A00CE49000800093D002DE9F84F94
:102EF000040070D02078C04DC00749D06868C0F386
:102F00008100012807D06868C0F38100022809D138
:102F10006868C00306D52868800339D56068002832
:102F2000E7D035E06068B0F5803F0BD010B1B0F568
:102F3000A02F11D0286820F480302860286820F461
:102F4000802002E0286840F480302860606890B1FA
:102F5000FFF7DCFD06460AE0286840F48020286080
:102F6000F0E700BFFFF7D2FD801B642873D8286804
:102F70008003F7D50CE0FFF7C9FD064605E000BF6A
:102F8000FFF7C4FD801B6428F0D828688003F7D4BD
:102F900020789A4E80074FF001094FF0000839D58C
:102FA000686810F00C0F07D06868C0F38100022831
:102FB00009D16868C00306D42868800714D5206941
:102FC000012808D110E02069B0B1C6F80090FFF7E1
:102FD0009DFD074605E00AE1FFF798FDC01B0228AA
:102FE000C4D828688007F7D52868616920F0F80000
:102FF00040EAC10028600DE0C6F80080FFF786FDBA
:10300000074604E0FFF782FDC01B022823D828688A
:103010008007F7D4207800072CD57948A169D9B169
:10302000C0F80090FFF772FD074604E0FFF76EFD61
:10303000C01B02280FD8686A8007F7D571484FF483
:10304000FA510068B0FBF1F0009000BF0098411EFB
:103050000091FAD20EE080E0C0F80080FFF756FD44
:10306000074604E0FFF752FDC01B022875D8686AC6
:103070008007F7D42078400760D5E8690027C000B2
:1030800008D4E86940F08050E861E869012700F061
:10309000805000905C480168C90513D401688346DC
:1030A00041F480710160FFF731FD824606E000BF08
:1030B000FFF72CFDA0EB0A0064284ED8DBF80000D7
:1030C000C005F5D5E06801280AD008B1052813D05D
:1030D000286A20F001002862286A20F0040002E03B
:1030E000286A40F001002862E06841F2883B98B10C
:1030F000FFF70CFD82460BE0286A40F004002862CE
:10310000EEE700BFFFF702FDA0EB0A0159455AD8D0
:10311000286A8007F6D50CE0FFF7F8FC824605E048
:10312000FFF7F4FCA0EB0A0159454CD8286A800748
:10313000F6D41FB1E86920F08050E861E06988B3F7
:103140006968C1F38101022944D00228C6F8608071
:1031500004D0FFF7DBFC044638E034E0FFF7D6FC90
:10316000074604E0FFF7D2FCC01B02282BD82868D2
:103170008001F7D4206AB0F5803F05D16868A16866
:1031800020F4003008436860D4E908010843696806
:1031900021F4741108436860C6F86090FFF7B6FC2C
:1031A000044606E025E000BFFFF7B0FC001B022844
:1031B00009D828688001F7D51BE000BFFFF7A6FCFF
:1031C000001B022802D90320BDE8F88F286880017F
:1031D000F4D40EE00128F7D06868226A00F4803148
:1031E000914204D1616A00F47010884201D001203C
:1031F000EAE70020E8E70000001002400000424239
:1032000080044242B40000200070004010B5401E0F
:10321000B0F1807F01D3012010BD4FF0E024606148
:103220000F21601701F0F9F80020A061072020614C
:10323000002010BD7047704770B590F83C20012AFF
:1032400026D0012480F83C40022280F83D2003680B
:103250005A689D6822F070060A6832435A600D4B26
:1032600002689A4208D0B2F1804F05D00A4B9A42C8
:1032700002D00A4B9A4204D1496825F080031943D1
:10328000916080F83D40002180F83C10084670BDF8
:10329000022070BD002C01400004004000080040E6
:1032A00010B5040003D094F83D0010B107E00120F0
:1032B00010BD002084F83C00204600F01FF80220DA
:1032C00084F83D00211D206800F03CFE012084F8B8
:1032D000460084F83E0084F83F0084F8400084F8FB
:1032E000410084F8420084F8430084F8440084F8E4
:1032F000450084F83D00002010BD000008B50068BE
:103300000B49884212D10B48C16941F00401C161E7
:10331000C069002200F00400009002211E20FFF787
:1033200061FCBDE808401E20FFF74EBC08BD000050
:10333000000800400010024090F83D10012901D023
:1033400001207047022180F83D100168CA6842F0F0
:103350000102CA6000680B49884208D0B0F1804F72
:1033600005D00949884202D00849884204D18168C1
:1033700001F00701062903D0016841F00101016055
:1033800000207047002C014000040040000800406D
:1033900070B5044690F83C000025012817D001269E
:1033A00084F83C60022084F83D002068826822F0A6
:1033B000770222F47F4282600868502838D00DDC02
:1033C00020284FD005DC90B3102811D14AE002200C
:1033D00070BD302846D040280AD13BE060282FD06D
:1033E00070280DD0B0F5805F03D0B0F5005F12D02B
:1033F000012584F83D60002084F83C00284670BD1B
:10340000CB68D1E90121206800F0D2FD20688168F5
:1034100041F0770109E0CB68D1E90121206800F093
:10342000C7FD2068816841F480418160E1E719E0CF
:10343000CA684968206800F0CDFD5021206806E088
:10344000CA684968206800F0D6FD6021206800F055
:10345000B9FDCEE7CA684968206800F0BBFD40218D
:103460002068F4E7226801461046F0E7704770B51F
:103470000446006801694FF00005C943890715D467
:10348000C168C943890711D4E91E01610120207771
:10349000206880698007204602D0FFF7E7FF04E03C
:1034A00000F098F8204600F096F82577206801692A
:1034B000C943490717D4C168C943490713D46FF0FA
:1034C00004010161022020772068806910F4407FA8
:1034D000204602D0FFF7CAFF04E000F07BF8204648
:1034E00000F079F8257720680169C943090716D4E7
:1034F000C168C943090712D46FF0080101610420B3
:1035000020772068C0698007204602D0FFF7AEFF11
:1035100004E000F05FF8204600F05DF825772068B1
:103520000169C943C90617D4C168C943C90613D480
:103530006FF010010161082020772068C06910F445
:10354000407F204602D0FFF791FF04E000F042F8F0
:10355000204600F040F8257720680169C943C90773
:1035600008D1C168C943C90704D1891E0161204639
:1035700000F032F820680169C943090609D4C1681E
:10358000C943090605D46FF0800101612046FFF7A9
:1035900051FE20680169C943490609D4C168C9437D
:1035A000490605D46FF040010161204600F024F87F
:1035B00020680169C94389060BD4C168C9438906DB
:1035C00007D46FF0200101612046BDE87040FFF78D
:1035D00032BE70BD704770470449884204D1F02262
:1035E00003490448FEF746BF70470000EC0C00207A
:1035F000B8080020780C0020704738B5044690F8D1
:103600004200202801D0022038BD61B15AB101200A
:10361000206300206063204600F096FE0028F3D16E
:10362000216B012901D0012038BD21680A68496851
:10363000009121680C3151E8002F42F0100241E85E
:103640000023002BF5D138BD70B5174A174C4FF445
:10365000806590420FD114480A461549483800F059
:103660005DFA012020702A4611490F48FFF7C5FF77
:103670000D48D03012E00C4A483A904213D1002055
:1036800020700A460B49084800F048FA09492A46C2
:1036900001F58060FFF7B1FF03484830006801681A
:1036A00021F00401016070BD7C11002000000020A9
:1036B000B8000020340D002070470000F8B5016804
:1036C00004460868CA684B6910F00F0F4FF00005F8
:1036D00059D003F0010602F49077374365D0C10753
:1036E00005D0D10503D5616C41F00101616441074A
:1036F00005D5D90703D0616C41F0020161648107EF
:1037000005D5D90703D0616C41F00401616401075C
:1037100007D502F02001314303D0616C41F008016C
:103720006164616C00293AD0800604D5900602D508
:10373000204600F04CFD20684069616CC0F38010A9
:10374000090700D460B3204600F00CFD20684069F2
:10375000400621D52068143050E8001F21F04001B8
:1037600040E80012002AF5D1E06BA8B16D49416331
:10377000E06BFEF729FF002811D0E06B416B01B030
:10378000BDE8F040084783060FD593060DD52046C7
:10379000BDE8F84000F01BBD2046FFF78DFFF8BDE7
:1037A0002046FFF789FF6564F8BD266B2023012EB4
:1037B0007CD1C6067AD5D60678D5086848680090C8
:1037C00048694FF00206400640D5E16B0868406842
:1037D0000004000CE8D0A28D8242E5D9E08588691A
:1037E00020282DD020680C3050E8001F21F4807173
:1037F00040E80012002AF5D12068143050E8001F7C
:1038000021F0010140E80012002AF5D120681430AF
:1038100050E8001F21F0400140E80012002AF5D1D5
:1038200084F84230256320680C3050E8001F21F0F6
:10383000100140E80012002AF5D1E06BFEF7A0FE6F
:103840006663A08DE18D401A81B22AE0A08DE18DE2
:10385000401A81B2E08D0028A6D00029A4D02268A9
:103860000C3252E8000F20F4907042E80007002F5D
:10387000F5D12068143050E8002F22F0010240E812
:103880000027002FF5D184F84230256320680C30E2
:1038900050E8002F22F0100240E80023002BF5D161
:1038A00066632046FFF7D0FEF8BDFFE705062BD57F
:1038B000150629D594F841002128F5D1A068B0F566
:1038C000805F01D12069B0B1206A411C216221686A
:1038D00000784860E08C401E0004000CE084E3D1D6
:1038E0002068C16821F08001C1602068C16841F092
:1038F0004001C160D8E7206A0088C0F30800486032
:10390000206A801C2062E5E74006CDD55006CBD565
:10391000CA68204622F04002CA6084F8413000F0B4
:1039200039F9C1E71B40000870B5040004D094F8D1
:103930004100002510B106E0012070BD84F8405020
:10394000204600F023F8242084F841002068C16854
:1039500021F40051C160204600F09AFC2068016902
:1039600021F4904101612068416921F02A014161FF
:103970002068C16841F40051C1606564202084F86A
:10398000410084F842006563002070BD2DE9F041DC
:1039900086B0002500950195029503950446DFF851
:1039A00060C10368574802210322574F80264FF019
:1039B000100863454CD1836943F480438361836974
:1039C00003F480430493836943F0040383618069B3
:1039D000039200F0040004900802CDE9000169465A
:1039E0003846FEF799FFF000CDE9000569463846F4
:1039F0000295FEF791FF464F4448C7E90005C7E925
:103A000002563D617D61BD613846FD61FEF7D2FE23
:103A100008B1FEF785FBE7637C623D4F3B484437C6
:103A20001438C7E902563D617D61BD61FD61C7E99A
:103A300000083846FEF7BEFE08B1FEF771FBA7632B
:103A40000022022125207C62FFF7CCF8252051E0DE
:103A5000DFF8C0C063454FD1C36943F40033C3618D
:103A6000C36903F400330493836943F0040383615F
:103A70008069039200F0040004900420CDE9000165
:103A800069463846FEF748FF0820CDE9000569463B
:103A900038460295FEF740FF1D4F1C48883714300A
:103AA000C7E90005C7E902563D617D61BD61384641
:103AB000FD61FEF77FFE08B1FEF732FBE7637C6233
:103AC000134F1248CC372830C7E902563D617D615B
:103AD000BD61FD61C7E900083846FEF76BFE08B11D
:103AE000FEF71EFBA7630022022126207C62FFF75F
:103AF00079F82620FFF768F806B0BDE8F0810000ED
:103B00000038014000100240000801405800024007
:103B1000C4110020004400407047704770B504464F
:103B200090F84100202801D0022070BD49B342B373
:103B30002162A284E28400206064212384F8413061
:103B4000A56B114BAB62A56B104BEB62A56B104BD9
:103B50002B63A36B5863256813462A1DA06BFEF7E1
:103B600057FE21686FF0400008602068143050E86C
:103B7000001F41F0800140E80012002AF5D100202A
:103B800070BD012070BD0000194100085B410008B4
:103B90002B4000080349884202D1034901200870E4
:103BA000704700007C110020010000207047FEE7F4
:103BB0003EB5002411480094019402940E4984609B
:103BC000016001250573047505614FF460214460AF
:103BD000C161FEF77BFB08B1FEF7A2FA0720009453
:103BE000CDE9015069460548FEF79CFA002801D04E
:103BF000FEF796FA3EBD000000240140780C00203C
:103C0000194808B5416941F001014161406900224C
:103C100000F00100009001210B20FEF7E3FF0B20D4
:103C2000FEF7D2FF002201210E20FEF7DBFF0E205F
:103C3000FEF7CAFF002201210F20FEF7D3FF0F205D
:103C4000FEF7C2FF002201211020FEF7CBFF10205B
:103C5000FEF7BAFF002201211120FEF7C3FFBDE8E5
:103C600008401120FEF7B0BF0010024070B586B0CA
:103C7000002425480094019402940394816941F042
:103C800010018161816901F010010491816941F0A5
:103C900020018161816901F020010491816941F075
:103CA00004018161816901F004010491816941F09D
:103CB000080181618069154E00F008004FF480759D
:103CC0000490002229463046FEF71BFF6801009051
:103CD0000F48CDE9010469463046FEF71DFE01217B
:103CE0000220CDE90210CDE9005169463046FEF7C9
:103CF00013FE002201212820FEF774FF2820FEF782
:103D000063FF06B070BD000000100240000C0140CF
:103D10000000311010B586B00024184800940194BA
:103D200002940394049414490594016041F61F41E0
:103D3000C0E9011444F61F61C0E9031480218161C8
:103D4000FFF7AEFA08B1FEF7EBF94FF480500090A0
:103D500069460A48FFF71CFB08B1FEF7E1F9049435
:103D600004A906480594FFF767FA002801D0FEF77A
:103D7000D7F906B010BD000000080040EC0C002090
:103D80000C4810B50A4901604FF4E131416000214F
:103D900081600C22C160C0E904128161C161FFF73A
:103DA000C3FD002803D0BDE81040FEF7B9B910BD2F
:103DB00000380140341100200C4810B50A49016058
:103DC0004FF4E1314160002181600C22C160C0E903
:103DD00004128161C161FFF7A7FD002803D0BDE88F
:103DE0001040FEF79DB910BD004400407C1100203A
:103DF000FEE7FEE770470000F0B5ADF52F7D4FF40C
:103E0000C8716846FCF7E3FB4FF4967164A8FCF7B1
:103E1000DEFB164D64AF002405F132061AE0CCB18A
:103E200004EB840005EB001202F1320310A13846C6
:103E3000FCF73AFA641CE4B2022CF0D364AB0FA294
:103E400013A16846FCF730FA6846FEF70FF90DF546
:103E50002F7DF0BD33462A4614A13846FCF724FADC
:103E600000E07F1C38780028FBD1E3E70300002046
:103E70005C2225735C223A2573000000686F6D6533
:103E80002F536D6F6B65466C616D6573303100004B
:103E900041542B4D5154545055423D25732C302CD8
:103EA000302C222573220D0A000000005C222573AD
:103EB0005C223A25735C2C007047FEF72DBE30B5AE
:103EC00093B028216846FCF782FB14210AA8FCF76E
:103ED0007EFB002501200F95109511950104129588
:103EE0008DE8230004904FF4E010CDE9081002247F
:103EF00007946846FEF7FAFF08B172B6FEE70AA912
:103F00000F2081E831004FF48060CDE90D050221DA
:103F10000AA8FEF70FFF08B172B6FEE74FF40040A3
:103F200011900F940FA8FEF78FFE002801D072B6F3
:103F3000FEE713B030BD70470148FFF798BA0000A4
:103F4000EC0C0020F0B50268164B174C174D4FF0E3
:103F50008047984205D0B84203D0A04201D0A84281
:103F600003D122F070064A683243984205D0B84225
:103F700003D0A04201D0A84203D122F44074CA6801
:103F800022434C6922F08002224302608A68C262A6
:103F90000A688262984201D1096901630121416185
:103FA000F0BD0000002C014000040040000800406B
:103FB00010B5846842EA032224F47F440A43224372
:103FC000826010BD826822F070020A4342F007014D
:103FD0008160704710B5036A046A24F0010404622A
:103FE000846924F0F00444EA021423F00A020A432C
:103FF0008461026210BD10B5036A046A24F01004E3
:104000000462846923F0A00324F4704444EA023279
:1040100043EA01118261016210BD10B5406A0021BE
:10402000C185C184FFF748FB10BD70B5446A2068A4
:10403000406994F84110C0F3C0100025212904D133
:1040400018B1E584204600F0B4F82068406994F87F
:104050004210C0F38010222904D118B1E585204612
:1040600000F080F8606C40F0100060642046FFF7BC
:1040700023FB70BD10B50146406A096809684FF01E
:10408000000289062ED4C28501680C3151E8003F38
:1040900023F4807341E80034002CF5D10168143119
:1040A00051E8003F23F0010341E80034002CF5D132
:1040B0000168143151E8003F23F0400341E8003427
:1040C000002CF5D1202180F84210016B012909D183
:1040D00001680C3151E8003F23F0100341E800343F
:1040E000002CF5D14263016B012902D0FFF714FDCA
:1040F00010BD818DFFF7A8FA10BD10B5406A0121EF
:104100004163016B012902D0FFF707FD10BD818DCE
:104110004908FFF799FA10BD10B50146406A0968D1
:104120000968890616D40021C1840168143151E858
:10413000002F22F0800241E80023002BF5D1016816
:104140000C3151E8002F42F0400241E80023002BDF
:10415000F5D110BDFFF71EFD10BD10B5406AFFF789
:1041600025FD10BD01680C3151E8002F22F490723A
:1041700041E80023002BF5D10168143151E8002FEC
:1041800022F0010241E80023002BF5D1016B012947
:1041900009D101680C3151E8002F22F0100241E8EA
:1041A0000023002BF5D1202180F84210002101636B
:1041B000704701680C3151E8002F22F0C00241E83D
:1041C0000023002BF5D1202180F84110704708B55D
:1041D00090F84210222901D0022008BD82684FF4D5
:1041E00080539A4201D1016921B1816A9A421BD060
:1041F0004AB10AE00268816A5268C2F308020A8082
:10420000816A891C08E0026972B10268526802F092
:104210007F020A70816A491C8162C18D491E0904AE
:10422000090CC18503D01BE002685268F1E7016800
:10423000CA6822F02002CA600168CA6822F480724B
:10424000CA6001684A6922F001024A61202180F8AF
:10425000421000214163026B012A03D0FFF75CFC8E
:10426000002008BD016301680C3151E8002F22F0E5
:10427000100241E80023002BF5D101680A68D2063C
:1042800002D50A6849680091818DFFF7DDF9E7E7FB
:1042900070B5044600680169E26821F44051114399
:1042A00001612169A0680843616908432168CA68FF
:1042B00041F20C639A430243CA6020684169A269D3
:1042C00021F44071114341611E492068884202D1A6
:1042D000FEF7D6FD01E0FEF7C3FD00EBC00101EBE8
:1042E0000012606864218000B2FBF0F3B3FBF1F3CD
:1042F0006FF018067343B2FBF0F5B2FBF0F605EB76
:104300008305322303EB0515B5FBF1F5B6FBF1F69A
:1043100005F0F00505EB0615B2FBF0F6B2FBF0F088
:10432000B0FBF1F06FF01802504306EB800003EB96
:104330000010B0FBF1F0216800F00F002844886005
:1043400070BD00000038014038B5816204468285A6
:10435000002013466064222284F84220E56B1B4A49
:10436000AA62E56B1A4AEA62E56B1A4A2A63E26BB3
:1043700050630A462168E06B091DFEF749FA206880
:10438000016840680090206948B120680C3050E80E
:10439000001F41F4807140E80012002AF5D1206826
:1043A000143050E8001F41F0010140E80012002ADB
:1043B000F5D12068143050E8001F41F0400140E87A
:1043C0000012002AF5D1002038BD00007540000819
:1043D000FB4000082B4000080148FFF76FB90000C0
:1043E000341100200148FFF769B900007C1100205A
:1043F000FEE7490050EAC12018BF04204A0D18BF4B
:1044000040F0010040F2FF72B2EB515F08BF40F094
:104410000200012808BF052070470907090E00287F
:1044200004DB00F1E02080F80014704700F00F007A
:1044300000F1E02080F8141D704730380A2801D2BE
:104440000120704700207047FEF76EFBFFF737FD35
:10445000FFF70CFCFFF7D4FBFFF7AAFBFFF7ACFC60
:10446000FFF758FCFFF78CFC0E2232A13548FFF70E
:1044700055FB4FF4806234493248FFF7BEF83348A9
:104480000068016821F004010160112230A12D486B
:10449000FFF744FB334C4FF400512046FEF72CFB52
:1044A000002839D0002230A13048FBF7FDFEFDF78F
:1044B000C9FD11222EA12348FFF730FBFDF75EFC5A
:1044C000102230A11F48FFF729FB3248FEF734FFC6
:1044D000112231A11B48FFF721FB122233A11948F9
:1044E000FFF71CFB364D4FF480762878012815D055
:1044F0006978012912D00843F7D10A20FEF7C0F9E4
:1045000031462046FEF7F8FA0028EED00022314668
:104510002046FEF7F6FAE8E70122C4E70A20FEF794
:10452000AFF931462046FEF7E7FA0028DDD1012237
:10453000EDE7000053797374656D205374617274F4
:104540000A00000034110020340D0020C4110020A6
:10455000554152543120496E6974204F7665720A74
:1045600000000000000C01402564000085000020D0
:10457000554152545F415420496E6974204F76650D
:10458000720A00004D515454204C696E6B204F76D6
:1045900065720A00EC0C002054494D3420537461BC
:1045A0007274204F7665720A0000000053797374AC
:1045B000656D20496E6974204F7665720A000000AF
:1045C000A300002010B500290AD00878002807D0E1
:1045D00005487844FCF720FF002801D0002010BDDA
:1045E0000248784410BD0000420500003A05000072
:1045F00010B500290AD00878002807D0054878446B
:10460000FCF70AFF002801D0002010BD02487844C2
:1046100010BD0000320500002A0500000808A0F5C2
:1046200000114FEA3101704743004FEAD30C4FEAC3
:104630003C0C43401FBF40070CF1605113F0FE4F8C
:1046400070471CF0006F03D100200CF00041704750
:104650000CF0004343EA507010B540EACC0000F083
:1046600066F900BF000000924FEA0001FFF7D6BFD5
:104670004FF000414FF00000A1F50021704700000D
:104680004FF47F0C1CEAD0121EBF1CEAD11392EA31
:104690000C0F93EA0C0F00F0858090EA010F48BFE1
:1046A00042F4807240F4000C41F400002CF07F4191
:1046B00020F07F4000B58142A2EB03020FF2081CFC
:1046C000ACEB504EC0F100009EF800E04FEA4E0EF9
:1046D00000FB0EFC38BF49004FEA2C1C02F5FA0221
:1046E0000CFB0EF34FEACE1E4FEA112C4FEAC1210C
:1046F0000EEB635E42EB22420EFB0CFC4FEA1C53B6
:1047000000FB03114FEA112C4FEA01310EFB0CFCA8
:104710004FEADC4C00FB0C11C14228BF09184CEBDE
:1047200003335DF804EB10EB410143EBC250B2F5EB
:104730007C0F38BF704729D512F0F00F1CBF00F175
:10474000C04000F0004070470081828384858687E6
:1047500088898B8C8D8E8F919293959697999A9C40
:104760009D9FA0A2A3A5A7A8AAACAEB0B2B3B5B7AF
:10477000B9BCBEC0C2C5C7C9CCCED1D4D7D9DCDF85
:10478000E2E6E9ECF0F3F7FAFE0000004FEA400C35
:104790000CF1807CBCF17E4F28BF7047B0F1C04067
:1047A00000F00BB990EA010F0CEAD11348BF42F4B4
:1047B0008072624538BF634507D213F47F0F16D06D
:1047C00080EA010000F00040704710B500F0AFF83B
:1047D000097EFC3E00F005B880EA010000F00040D0
:1047E000704780EA010000F0004000F0E6B812F4E3
:1047F0007F0F04BF0248704780EA010000F0DDB877
:104800000000C07FB0FA80F310FA03F2C3F19D03F9
:104810000AD0D90501EB1220530638BF704700F1CA
:10482000010008BF20F00100704700004FF47F0C2A
:104830001CEAD0121EBF1CEAD11392EA0C0F93EAB5
:104840000C0F00F0478090EA010F48BF42F48072DD
:104850004FF0004C4CEA00204CEA012102EB03022D
:10486000A0FB0113A2F50002002918BF43F00103C9
:104870005B0028BF4FEA330342EB22425FEA132C6E
:104880004CEBC2502EBFBCEB436FB2F57C0F7047B0
:104890004FEA036CBCF1004F08BF20F00100B2F5F5
:1048A0007C0F38BF70470BD582F0FF0212F5803FB6
:1048B000C8BF704700F1C040D8BF00F0004070474B
:1048C00000F5000C5FEA4C0C48BF7047B0F1C040E7
:1048D00000F073B890EA010F0CEAD11348BF42F41C
:1048E0008072624538BF634504D280EA010000F05F
:1048F0000040704710B500F01AF800BF8900013E73
:1049000000F007B800F009B85FEA410C5FEA1C6CE0
:1049100008D080EA010000F050B85FEA400C5FEA7E
:104920001C6CF6D14FF00040A0F5800070470EF1EE
:10493000020E2EF0030E5EF8044B244204D44FEA1C
:104940004102B2F17F4F11D84FEA4003B3F17F4FDC
:104950000CD80ED14FEAD07CB2F17F4F0CEB4C0C4F
:104960000CF1020C08BF4CEBD17C04E04FF0080CBA
:1049700001E04FEAD17C0CEB4C0324FA03F404F081
:104980000704B4F1040C06D20EEB840CBDE8104011
:104990004CF0010C6047DFE80CF0070802024FF012
:1049A0000040A0F5800010BD0846420018BFD2F1BB
:1049B000807288BF00F0004010BDFF2141EAD05056
:1049C000C0057047FBF7ACBFFCF784BA01020203D5
:1049D0000405060708090A0B0C0D0E0F1010000045
:1049E000000000000000010203040607080900009F
:1049F00000000102030404000008000000000000A1
:104A00000002000100001000000000000000000093
:104A100030313233343536373839414243444546F4
:104A200040305800303132333435363738396162EE
:104A30006364656640307800303132333435363760
:104A400038396162636465667870003031323334BE
:104A50003536373839414243444546585000000006
:104A600002400000000000A000000000054000001F
:104A7000000000C8000000000C4000000000409C46
:104A800000000000194000000020BCBE0000000033
:104A900034400000BFC91B8E00000004B540000078
:104AA000504BCFD06607E2CF010000006C41000000
:104AB0003E8251AADFEEA73401000000D942000077
:104AC000DCB5A0E23A301F97FFFFFFFFB4450000BE
:104AD000FD25A0C8E9A3C14FFFFFFFFFFF3F000076
:104AE0000000008000000000FF3F00000000008088
:104AF00000000000404C000800000020B80000004A
:104B000028010008F84C0008B800002080180000B8
:104B1000440100081C00000043000000F8FFFFFFF4
:104B20000C0000000E0000000F0000002E0000002E
:104B30001001000043000000F8FFFFFF004040406C
:104B40004040404040404141414141404040404060
:104B5000404040404040404040404040400502020C
:104B600002020202020202020202020202202020CB
:104B70002020202020202002020202020202909027
:104B80009090909010101010101010101010101025
:104B90001010101010101010020202020202888879
:104BA0008888888808080808080808080808080885
:104BB000080808080808080802020202400000006D
:104BC00000000000000000000000000000000000E5
:104BD00000000000000000000000000000000000D5
:104BE00000000000000000000000000000000000C5
:104BF00000000000000000000000000000000000B5
:104C000000000000000000000000000000000000A4
:104C10000000000000000000000000000000000094
:104C20000000000000000000000000000000000084
:104C30000000000000000000000000000000000074
:104C4000000100536D6F6B65000000000000000064
:104C50000000000000000000000000000000000054
:104C60000000000000000000000000000000000044
:104C70000000000000000000000000000000000034
:104C80000000000000000000000000000000000024
:104C9000000000466C616D657300000000000000BC
:104CA0000000000000000000000000000000000004
:104CB00000000000000000000000000000000000F4
:104CC00000000000000000000000000000000000E4
:104CD00000000000000000000000000000000000D4
:104CE00000000000000000000100000010000000B3
:084CF000000000000024F400A4
:04000005080000ED02
:00000001FF
