:020000040800F2
:100000007015002061020008C150000891490008E5
:10001000BD500008352600085D60000800000000A3
:10002000000000000000000000000000815B0008EC
:1000300069260008000000007D5B0008855B000861
:100040007B0200087B0200087B0200087B0200089C
:100050007B0200087B0200087B0200087B0200088C
:100060007B0200087B0200087B0200087B0200087C
:100070007B0200087B02000839260008452600089C
:10008000512600085D2600087B0200087B0200085C
:100090007B0200087B0200087B0200087B0200084C
:1000A0007B0200087B0200087B0200087B0200083C
:1000B0007B0200087B0200087B0200087B0200082C
:1000C0007B0200087B0200087B0200087B0200081C
:1000D0007B02000845600008516000087B020008B0
:1000E0007B0200087B0200087B02000800F002F897
:1000F00000F0A6F814A696E8000CB244B344DA4522
:1001000001D100F09DF8BAE80F000FA696E8300084
:10011000A5EB040504EB0607AAEB0704A7F101070A
:100120004FEA15154FEA3414A4F10104AC4201D38F
:1001300000F086F813F0010F18BFFB1A43F001031B
:1001400000F001F8DBE71847007A0000207A000091
:10015000103A24BF78C878C1FAD8520724BF30C8F3
:1001600030C144BF04680C60704700007047000055
:100170000023002400250026103A28BF78C1FBD8B0
:10018000520728BF30C148BF0B6070476E2900F08E
:100190006283702900F0D186662906F07787652989
:1001A00006F07487672906F07187612906F0708769
:1001B00003681B0A28BF41F08001692900F0CE8046
:1001C000642900F0CB80752900F0C8806F2900F009
:1001D0005F86782900F09D86E92900F0F985E429F9
:1001E00000F0F685F52900F0F385EF2900F05C8634
:1001F000F82900F09C860368DB0928BF41F08001E4
:10020000632900F07A85732900F07F85E32901F0E6
:100210009981F32901F09E81002070471FB500F0FD
:1002200077FF04000020002106F0A0FD401C606064
:100230000020002106F084FDE0601FBD10B510BD58
:1002400001F0B0FA1146FFF7E9FF05F009FF01F0F0
:1002500059FD03B4FFF7F2FF03BC01F099FF000062
:100260000948804709480047FEE7FEE7FEE7FEE74A
:10027000FEE7FEE7FEE7FEE7FEE7FEE70448054986
:10028000054A064B70470000895B0008ED00000836
:10029000700F0020701500207011002070110020D8
:1002A0007CB51D4616460C00009007D04142A14285
:1002B00002D32044401E01E04FF0FF30064B7B4448
:1002C0002A4669460190304600F0EDFC002C02D031
:1002D000009A002111707CBD150A00000FB41CB5F6
:1002E000084B06AA7B4469460090059800F0DBFCA9
:1002F00004460020694600F0E9FC20461CBC5DF87D
:1003000014FB0000E509000070B50C460546012A03
:1003100005D02878800600D5EA69002302E0012391
:1003200005E05B1C934202D2E05C0028F9D1A86989
:10033000E618C01AA861286A18442862284600F006
:10034000F8F904E0D5E9012114F8010B9047B44213
:10035000F8D3284600F003FA70BD00002DE9F04103
:100360000646002410687529314616A510D000F005
:1003700007FA002802DA404213A507E031688A072D
:1003800001D512A502E0490704D511A5012401E019
:1003900000F0FFF900210A2206F1240709E0B0FB72
:1003A000F2FCB0FBF2F302FB1C003030785418462C
:1003B000491C0028F3D123462A463046BDE8F041C7
:1003C00000F0F0B9000000002D0000002B0000003C
:1003D000200000002DE9F05F894604464FF0000A36
:1003E000DFF874B1FB44C0F820A02046E1688847DC
:1003F000002874D0252806D0D4E901219047206A2E
:10040000401C2062F1E700265F462046E1688847ED
:100410002028054607DB312D05D2781910F8200C6D
:1004200008B10643F1E7B00701D526F00406C4F889
:100430001CA00027C4F818A02A2D09D0284606F0D1
:10044000FCFB38B304EB8708303DC8F8185019E0BE
:1004500059F8041B204604EB87029161E168884744
:10046000012F054618D1E069002820DA26F0200681
:100470001DE0D8F8180000EB800005EB4000303894
:10048000C8F818002046E1688847054606F0D5FB05
:100490000028EED1012F0AD02E2D08D12046E16888
:1004A00088477F1C0546022F46F02006C4DBA06962
:1004B000002803DA404246F00106A061F00701D0AF
:1004C00026F010066C2D0BD0682D09D04C2D39D09C
:1004D0006A2D35D0742D35D07A2D33D016E038E022
:1004E000E1682F4620468847B842054609D16C2F5F
:1004F00026D04FF48060E1680643204688470546D1
:1005000004E06C2F1AD04FF4807006430DB3A5F1B0
:100510004100192802D8203546F400664A4629468B
:10052000204626604E46FFF731FE80B101280BD0F1
:10053000F61D26F0070000F1080956E74020E4E721
:100540008020D8E70020D6E706F104094DE72846C9
:1005500052E7206ABDE8F09FA86D000070B506461E
:1005600000F0D8F80468054630460A22002100F061
:1005700047FD2C6070BD0000014A00F079BD00000D
:100580000000002030B505460B462A4613F8014B03
:1005900012F8010B08B1A042F8D01CB1002802D01B
:1005A0006D1CF1E7284630BD10B5431C02E010F881
:1005B000011B71B18107FAD14FF0013202C88C1AC8
:1005C0008C4314EAC211F9D0C01A0A0603D0C01E27
:1005D00010BDC01A10BD0A0401D0801E10BD090252
:1005E000FCD0401E10BD4FF0000200B513469446EB
:1005F0009646203922BFA0E80C50A0E80C50B1F17B
:100600002001BFF4F7AF090728BFA0E80C5048BF8E
:100610000CC05DF804EB890028BF40F8042B08BF2C
:10062000704748BF20F8022B11F0804F18BF00F828
:10063000012B704710B5044610F0030F08BF11F0EE
:10064000030F40F015804FF0013E121FC0F20E80E4
:1006500051F8043BA3EB0E0C2CEA030C1CEACE1C55
:1006600008BF40F8043BF0D0A1F1040102F10402FC
:10067000521E08DB11F8013B00F8013B002BF7D1BB
:10068000114600F017FD204610BD00004FF0013C60
:1006900050F8042B51F8043B9A4221D1A2EB0C03F1
:1006A000934313EACC1317D150F8042B51F8043BB1
:1006B0009A4215D1A2EB0C03934313EACC130BD14E
:1006C00050F8042B51F8043B9A4209D1A2EB0C03D9
:1006D000934313EACC13DBD04FF00000704700BF08
:1006E000D01A01BAB1FA81F101F0180122FA01F031
:1006F000CB40DBB2C0B2C01AC1F120012CFA01F329
:10070000D11A914311EAC311E6D17047704770477F
:100710007047000000487047C800002010B5FFF780
:10072000F9FF006810BD10B50446FFF7F3FF046041
:1007300010BD70B5044685690068C10601D5302634
:1007400000E02026C00707D070BDD4E90121304663
:100750009047206A401C20626D1EF6D570BD70B5B2
:10076000044685690078C00707D170BDD4E901212E
:1007700020209047206A401C20626D1EF6D570BD77
:1007800009684A0501D540B27047C905FCD500B2D9
:10079000704709684A0501D5C0B27047C905FCD544
:1007A00080B270472DE9F0470D46994692460446BF
:1007B00000F124080168880604D5E06921F01001E1
:1007C000216000E00120A84201DD471B00E0002776
:1007D000A1697A1902EB0900081AA0612078C00605
:1007E00002D42046FFF7A5FF002608E0D4E9012146
:1007F0001AF806009047206A401C761C20624E457D
:10080000F4DB2078C0060AD52046FFF792FF06E009
:10081000D4E9012130209047206A401C2062381E14
:10082000A7F10107F4DC07E0D4E9012118F805007D
:100830009047206A401C2062281EA5F10105F3DCC8
:100840002046FFF78CFF2078000602D50220BDE885
:10085000F0870120FBE711680268006A530501D5A3
:1008600008700AE0D30501D5088006E0130603D519
:10087000C217C1E9000200E00860012070472DE9BD
:10088000FF4F0C461E464FF0FF378BB0D2E90001F8
:10089000DDF860800A908A46C1F30A5505B93D46E5
:1008A000002108464FF00000BAF1000F00F44000AC
:1008B00005DA00EB80004FF4400101EA50004FEAF6
:1008C0009059B9F1010F00DDB9460A9850EA4A0083
:1008D0000ED044F61050A5F2FF3545432F14B8F161
:1008E000000F1ED07542291E1EDDC9F100021CE05A
:1008F000B8F1010F4FF0000001D0302103E0F243C6
:1009000005E02154401CB042FBDB304600220021B0
:1009100021540B99C1F80880C1E900200FB0BDE84F
:10092000F08FBD1B6D1CDEE74A4600DA694206A85F
:1009300000F084FE06AB93E8070003AB83E80700F2
:1009400050460A9905F0B0FC8DE80700A0F500506C
:100950001F3800900398002D0ADD42F21F014A461D
:100960000844002303A90390684605F05BFF09E0F3
:10097000A0F500504A461F38002303A9039068469B
:1009800005F07AFF8DE807000004000C03D04FF05B
:10099000FF30410800E01046B8F1000F03D00022FC
:1009A000009215461EE0751E05D400F0B5FB3032EE
:1009B00062556D1EF9D5B3460122084302D00022CC
:1009C0007F1C04E02078302801D100227F1E002AFD
:1009D000099784D01DE0112D07DA00F09DFB30321D
:1009E00062556D1C50EA0102F5D1084302D000980F
:1009F000C8B10EE00021681E05E0235C625C635410
:100A00002254401E491C8142F7DBAB46A81B401E06
:100A10000990002004F80B000B98099AC0F8088090
:100A2000C0E9002B7AE711264FF0000857E72DE9BF
:100A3000F04F88460446D21D22F0070191B0D1E95B
:100A40000001CDE90A0106F063F802460B98C00FD9
:100A500001D02D2007E02068810701D52B2002E07E
:100A6000202101EAC000032A099001D0072A05DBF2
:100A700003464146204600F01BFD0BE1207880062E
:100A800001D5E06900E00620B8F1650F814606D087
:100A9000B8F1660F18D0B8F1670F70D131E00020BF
:100AA000B9F1110F009001DB112301E009F10103FD
:100AB0000AAA01A90CA8FFF7E2FEDDE90C700026E6
:100AC00009F10105834647E001204B4600904FF0B5
:100AD00000470AAA01A90CA8FFF7D1FEDDE90DB075
:100AE0000C995D46002610B909F101000D18B9EB0B
:100AF000050003D4C0F1FF3609F10105A5EB09009B
:100B00002BE0B9F1010F01DA4FF001090020B9F132
:100B1000110F0090484601DD112300E003460AAAA8
:100B200001A90CA8FFF7ABFEDDE90C704D460026CD
:100B30008346207800070AD4AB4500DA5D4601A859
:100B4000012D04DD411911F8011C302907D04F4552
:100B500002DA17F1040F04DA012082460FE06D1E5D
:100B6000EEE7002F02DCED1B3E4403E0781CA842B8
:100B700000DD7D1CB81B00F1010A4FF00047207812
:100B8000000703D4AA4501DB4FF0FF3A0021B7F17B
:100B9000004F0DF143088DF8431024D002202B2381
:100BA000002F01DA7F422D230A21021EA0F101004D
:100BB00000DC5FB197FBF1FC97FBF1F201FB1C7CC1
:100BC00017460CF1300C08F801CDEEE7A8F1010052
:100BD00003702188090501D5452100E06521A0F1B8
:100BE000010800F8011C09980FA9A1EB0807FF1DD7
:100BF00000B10120411901EBEA70A1693844081ADB
:100C0000401EA0612078C00602D42046FFF791FD67
:100C1000099828B1D4E901219047206A401C20623C
:100C20002078C00622D52046FFF783FD1EE0002E67
:100C300004DBB34502DD01A8805D00E03020D4E98B
:100C400001219047206A401C2062761CAAF1010015
:100C50005FEA000A0AD100F05BFAC0680168405CF4
:100C6000D4E901219047206A401C2062281EA5F18A
:100C70000105DCDC07E0D4E9012118F8010B9047FD
:100C8000206A401C2062381EA7F10107F3DC2046D1
:100C9000FFF765FD032011B041E6000001694A1C21
:100CA00002610878704700B58FB0CDE901310021AD
:100CB000059105497944CDE9031011466846FFF7CF
:100CC00089FB0FB000BD0000E5FFFFFF0A6802F8D6
:100CD000010B0A607047D1E900239A4202D2531CEB
:100CE0000B601070704710B5436913B1AFF300800B
:100CF00001E0FFF709FB012010BD127800F124018B
:100D00000A7000224A700122EDE711684FF0FF32AD
:100D1000E9E700002DE9FF5F15468A460446DFF843
:100D2000AC80F8440027D8E900103E46CDE9001019
:100D300010E03AF816106A4602A800F0F1FC411CD7
:100D400007D02178890603D5E269391891420DD878
:100D50000744761C2078800602D5E069B84205DD9C
:100D6000AE42E6DB3AF816000028E2D1A069C01BCB
:100D7000A0612046FFF7DDFCD8E90010CDE90010A6
:100D8000002017E03AF818106A4602A800F0C8FCE4
:100D9000B0F1FF3F81460BD000250DF1080B05E0B7
:100DA000D4E901211BF8050090476D1C4D45F7D390
:100DB00008F10100B0428046E4DB206A384420623A
:100DC0002046FFF7CCFCBDE8FF9F00007E640000DA
:100DD0002DE9F0418046D21D22F007020025D2E91C
:100DE0000002F52915A614D0011E72F1000106DAE1
:100DF0000023D0EB030063EB020211A608E0D8F851
:100E000000108B0701D50FA602E0490701D50EA6F9
:100E100001251146002408F1240704E000F07CF9C4
:100E200030323A55641C50EA0102F7D12B46324663
:100E300021464046BDE8F041FFF7B4BC0000000089
:100E40002D0000002B0000002000000030B4002125
:100E500000F1240408E002F00705D208303542EA28
:100E60004372DB086554491C52EA0305F3D1046858
:100E7000002310A2250708D504F020040C4304D059
:100E8000C46901230CA2641EC46130BCFFF78ABC94
:100E900010B5044621461068FFF77BFC0246204649
:100EA000BDE810400023D1E7D21D22F00701D1E9AF
:100EB0000023CBE70000000030000000F0B40D4636
:100EC0000188090502D5214C7C4402E01F4C7C447A
:100ED0000E34002100F1240608E002F00F07120989
:100EE000E75D42EA03721B097754491C52EA030783
:100EF000F3D102780023120704D5702D06D009B172
:100F0000022311342246F0BCFFF74CBC01231034FD
:100F1000F8E770B504460D4621461068FFF739FC26
:100F2000024629462046BDE870400023C6E7D21D90
:100F300022F00703D3E90023C0E70368126843F0F7
:100F4000200303600823C3610023B7E7E0620000C9
:100F50000FB40B0010B54FF000048AB00FA9009138
:100F60000E99CC60234C7C44234A7A44CDE9064256
:100F700000D004236FF00042CDE901321F4A7A44C9
:100F80006B4608920246002006F0E4F80AB010BC56
:100F90005DF814FBF0B507464FF0FF301E461546CE
:100FA0000C463B4685B06A460091CDE901013146C9
:100FB0000020049004A8FFF7CBFF049903466018B3
:100FC00025B109B1024600E022462A6000290ED070
:100FD000002B02DD0099814209D03B466A4631462A
:100FE000001B0094CDE9010404A8FFF7B1FF05B090
:100FF000F0BD0000F30500000D0600002102000016
:101000002DE9F04791460F4680460446002614F825
:10101000015B2DB100F074F80068405DC007F6D1A7
:101020002B2D02D02D2D18D0641E4A46394620465D
:1010300000F0B4FA27B13968A14201D1C7F80080A5
:101040004FF0020471050BD54042002803DDFFF785
:1010500061FB0460A007BDE8F08746F48066E4E722
:101060000028F8DAFFF756FB04606FF00040F2E763
:101070002DE9F04115460E46040002D12C6804B952
:101080000BA4204600F080FB0444207870B1274672
:101090003146384600F068FB0444207810B1002047
:1010A00004F8010B38462C60BDE8F0810027F9E711
:1010B000000000004FF000020429C0F0128010F080
:1010C000030C3FF492AACCF1040CBCF1020F18BF40
:1010D00000F8012BA8BF20F8022BA1EB0C01FFF7B1
:1010E00084BA5FEAC17C24BF00F8012B00F8012B11
:1010F00048BF00F8012B704700487047C800002027
:1011000010B500F005F8001D10BD00BF615C0000C7
:1011100000487047E800002030B5B0F10A0271F1D4
:1011200000034FEA900E4EEA817EB0EB0E0061EBB9
:1011300091014FEA101E4EEA017E10EB0E0041EBCA
:1011400011114FEA102E4EEA016E10EB0E0041EB2A
:1011500011214FEA104E4EEA014E10EB0E0041EB0A
:101160001141401841F100014FEAD00040EA4170BE
:101170004FEAD1014FEA810444EA907410EB8005F4
:1011800044EB01046D1944EB0404521BA3414FF0DE
:10119000000348BF0A3200D530BD401C41F10001B8
:1011A00030BD10B50446FFF7ABFF0068005D00F0EE
:1011B000010010BD2DE9F04F04460D46D21D22F06E
:1011C000070089B0D0E900974846394605F0A0FCF1
:1011D0000246F80F01D02D2307E02068810701D5D2
:1011E0002B2302E0202101EAC0038DF820300BB14F
:1011F000012000E00020032A824601D0072A04DBF8
:101200002946204600F054F93FE12078800601D4B9
:101210000D2500E0E569C7F30A560D2D49DA0021D6
:101220004FEA175B08464FF00000002F00F4400023
:1012300007DA00EB80004FF4400100EBD07001EAC8
:1012400060008115012901DD4FF0FF3100224FEAD6
:10125000850CBCF1180F06D31346ACF118004FF003
:101260008052C24003E04FF4801323FA0CF30CF1D8
:101270000C0CBCF1200F04D3ACF1200C09FA0CF0DB
:1012800001E007FA0CF000294FF0004801DD18B921
:101290000FE00ED140450CD319EB02095F4121B993
:1012A000404502D19F4329EA0209BBEB175F00D0FA
:1012B000761C2088000502D57B48784402E07A48F5
:1012C0007844193808AA302302F80A30037C0AF15E
:1012D0000101002E0AF1020A53546A4602DC4FF063
:1012E000300101E04FF031014FF001088DF800109E
:1012F00002D0A6F2FF3603E059EA470100D06B4E58
:10130000002D02DC2178090704D54FF002082E21B8
:101310008DF80110C44600210BE0C7F303433F01E1
:10132000C35C491C6D1E02F80830052908F101084C
:1013300001DA002DF1DC00210CE000EB1973491CEF
:101340001B786D1E082902F808304FEA091908F1C8
:10135000010801DA002DF0DC21688B0602D516E0C9
:10136000A8F10108E04505DD02EB080313F8013C94
:10137000302BF5D0B8F1000F09DD02EB080313F8AC
:10138000013C2E2B03D1090701D4A8F10108002D3F
:1013900005DD3E2102F808106D1E08F10108407CB1
:1013A000002E02F8080008F1010804DA2D20764228
:1013B00002F8080002E02B2002F808000A214FF48E
:1013C0007A70864208F101080BDB96FBF0F33033AC
:1013D00002F8083096FBF0F308F1010800FB1366F1
:1013E00001E0642E0CDB642096FBF0F3303302F84E
:1013F000083096FBF0F308F1010800FB136601E0EA
:101400000A2E06DB96FBF1F0303002F8080008F1F6
:10141000010896FBF1F001FB1060303002F8080083
:10142000A16908F1010808EB050202EB0A00081A9D
:10143000A0612078C00602D42046FFF77AF9216A1D
:1014400008AE01EB0A00206204E0D4E9012116F89D
:10145000010B9047BAF1010AF7D22078C00602D5F5
:101460002046FFF766F96E4609E016F8010B3E28A4
:101470000FD0D4E901219047206A401C2062B8F1C6
:101480000108F2D22046FFF76AF909B00320BDE84F
:10149000F08F206A2844206203E0D4E90121302043
:1014A00090476D1EEBD3F8E7295F000002FCFFFFB9
:1014B0002DE9F0411F46044603260168072A01F47E
:1014C000006004DB08B116A505E016A503E008B12D
:1014D00015A500E015A521F010002060A069C01E30
:1014E000A0610FB1401EA0612046FFF722F94FB165
:1014F000D4E9012138469047206A401C2062C01C74
:10150000206206E0206AFAE7D4E9012115F8010B10
:101510009047761EF8D22046FFF721F9BDE8F0810A
:101520004E414E006E616E00494E4600696E660087
:1015300010B5436913B1AFF3008001E0FFF7EAFB98
:10154000012010BD128800F1240182840022C2848F
:101550000122EDE711684FF0FF32E9E7426842B13E
:10156000016811F8013B23B1521EC0E90012184670
:1015700070470121C160881E704742685AB1C36834
:10158000016843B983688B4205D0491E521CC0E9EB
:101590000012002070474FF0FF3070472DE9F05FD8
:1015A000824615468B4600270AF10104B9460078A9
:1015B000302801D09DB113E014F8010B01277828E1
:1015C00003D0582801D045B10AE00DB1102D07D144
:1015D000002714F8010B102502E0082500E00A2579
:1015E0000026B0460EE005FB080005FB06F10127CA
:1015F0001FFA80F801EB1046B6F5803F00D3B946DC
:1016000014F8010B294600F0F2F80028EBDABBF1E0
:10161000000F05D00FB1641E00E05446CBF8004027
:10162000B9F1000F06D0FFF775F802210160C81E5E
:10163000BDE8F09F48EA0640FAE700002DE9F047D0
:10164000814616468AB0354878440DC88DE80D00AD
:1016500032487844801C03AC0DC884E80D0041F684
:101660009B300844372190FBF1F290FBF1F5A5F196
:10167000800501FB12041B3C02D56442012000E0FE
:101680000020DFF898A080460027FA44AAF1BE0A9D
:101690000EE0E0070AD03246684607EB4701012317
:1016A0000AEB810105F0E8F88DE8070064107F1C63
:1016B000002CEED1194F7F44AE3F19E0E80715D05A
:1016C00007EB04100DF1180A90E80E008AE80E00EE
:1016D000C068F04201D1981908903246012306A94A
:1016E00003A805F0C9F803AB83E807006D10641C7C
:1016F000002DE3D14FF0010332466946B8F1000FE7
:1017000003A802D005F08EF801E005F0B5F8C9E9AC
:101710000001C9F808200AB0BDE8F0872C5C000081
:101720002DE9F04116460C460546FFF7E9FC036833
:1017300093F80101012807D0FF2C12D8185D80B161
:1017400001202C70BDE8F081D3F807013246214614
:1017500003F20713C7182846BC46BDE8F041002332
:1017600060474FF0FF30EDE730B503461D781DB1FF
:101770000A4603E0AC4201D1181A30BD12F8014B01
:10178000002CF7D15B1CF1E730B503461D783DB165
:101790000A4612F8014B1CB1AC42FAD15B1CF5E7CA
:1017A000181A30BD7546FFF7A7FCAE46050069461E
:1017B000534620F00700854618B020B5FEF75EFDC1
:1017C000BDE820404FF000064FF000074FF0000842
:1017D0004FF0000BAC46ACE8C009ACE8C009ACE87F
:1017E000C009ACE8C00921F007018D4670473A28CE
:1017F00000D2303820F02002412A01D3A2F1370074
:10180000884201D34FF0FF30704700002DE9FF4FB1
:1018100006468BB00878FF2806D0491C2D2805D035
:1018200000244FF0000908E000200CE00124F8E754
:1018300009EB8903491C00EB43090878FF28F7D11D
:1018400014B1C9F100008146107800252C46AA4643
:1018500029462D2801D02B2804D1521C2D2813D025
:10186000002082468B461078FF280FD04FF0000CE6
:101870000A21521CA5FB017804FB018105FB0C1118
:10188000C5194BEB0104EEE70120EAE70021084609
:101890004FF00000BAF1000F02D000EB80004008CA
:1018A000C0F38157012F01DD4FF0FF370E9955EA44
:1018B000040009EB01080BD04FF0020918F5FA7F7C
:1018C00016DA4FEACA70002F706008DD012007E0C9
:1018D0004FEACA70C6E900B00FB0BDE8F08F002033
:1018E0003060FEF717FFC0F800901821084616E098
:1018F000B8F5FA7F18DD002F02DAF748784401E0E6
:10190000F6487844D0E90010C6E9001040EACA70F1
:101910007060FEF7FFFEC0F80090142108460FB07B
:10192000BDE8F04F05F0AFBB002108464FF00000C6
:10193000B8F10001099002DAC7F1000200E03A466E
:1019400001DAC8F1000106A8FFF778FE06AB93E8BC
:10195000070003AB83E8070044F23E005BEA0401A2
:101960000090584604D144F21E012C465D46009179
:10197000210C0904014306D10099240444EA1544CA
:101980002D041039009104F07F41014306D10099E4
:10199000240244EA15642D020839009104F07041D4
:1019A000014306D10099240144EA15742D01091F51
:1019B000009104F04041014306D10099A40044EA9B
:1019C0009574AD00891E009104F00041084304D1D4
:1019D00000986D196441401E00904FF001033A4693
:1019E0006846B8F1000FCDE9014503A902DD04F016
:1019F00058FF01E004F02BFFBAF1000F04460D463A
:101A000001D084F00044002108464FF000000999FD
:101A100040F2FF77484010F00C0F07D124F000404F
:101A2000284303D0C4F30A50B84212D1FEF772FE25
:101A3000C0F80090C4F30A50B8420AD1A8487844CC
:101A4000D0E90010C6E9001004F0004108437060BE
:101A500042E7C6E900543FE72DE9FF4F1F464FF02C
:101A6000000A4FF0FF38454691B0D7E90146CDF85E
:101A70003CA0FFF74DFBC0680168405C1090B9695D
:101A800012986D1C8847396A814688470028F6D12C
:101A9000B9F1FF3F0AD0002E24F4D06411DDB9F172
:101AA0002B0F08D0B9F12D0F0BD102E0404615B035
:101AB00013E744F48064B96912986D1C8847761E58
:101AC0008146600504A901D52D2000E02B20002EC1
:101AD00001F1010B0DF130088DF810003FDDB9F177
:101AE000690F08D0B9F1490F05D0B9F16E0F02D0D6
:101AF000B9F14E0F1CD13B4601A8009580E8500279
:101B0000DDE912126FF0020005F028FBC11CCED1F6
:101B10000EE0B96912986D1C884781461398761EAD
:101B200044F4007405600F98401C002E0F9016DDE1
:101B3000B9F1300FEDD0B9F1780F02D0B9F1580FEB
:101B40000DD10F9801280AD13B46CDE90054DDE9BB
:101B50001212001F029605F0FFFAC11CA7D11099BE
:101B600089453ED144F0800406E01399681CAAF12F
:101B7000010A44F400740860B9696D1C1298761E5D
:101B8000884730288146F0D02BE01099894505D14F
:101B9000200603D4761E44F0800418E0484605F081
:101BA0004CF808B3761E0DF123029345A9F13000DD
:101BB00044F4007406D20BF8010B200607D5AAF1F5
:101BC000010003E0200602D40AF101008246A005CC
:101BD00002D51399681C0860B96912986D1C884772
:101BE0008146002ED1DC53E0002E51DDB9F1650FA6
:101BF00002D0B9F1450F4BD1A00549D5B9696D1C8B
:101C00001298761E24F440748847002E81460CDD1D
:101C10002B2804D0B9F12D0F07D144F48074B96991
:101C200012986D1C8847761E8146E00501D52D214E
:101C300000E02B2108F8011BCDF8008021E0761E82
:101C40000DF13901884544F400740CD2A9F130003B
:101C500010F0FF0088F8000002D10099884509D9EA
:101C600008F1010806E0E00501D51E4801E042F256
:101C70000F708246B96912986D1C88478146139887
:101C80000560002E04DD484604F0D7FF0028D6D1B9
:101C9000F96912988847FF2053468BF8000088F8AE
:101CA000000000200A900B9004AA0CA90AA8FFF7D4
:101CB000ADFDA00502D46FF00100F8E614F0240F8A
:101CC00012D0E0071CD13868DDE90A12031D3B6021
:101CD0000068C0E9001213E0706200006262000058
:101CE00026610000F1D8FFFF0AA9684604F034FF1E
:101CF000E00705D13868009A011D3960006802606C
:101D00002846D4E610B50446AFF300802046BDE86F
:101D10001040FEF79EBAB2F120030AD5C2F12003AB
:101D200001FA02F120FA03F341EA030100FA02F09A
:101D3000704700FA03F14FF0000070472DE9FF4FA4
:101D40001F464FF03C0987B04FF00042DDE9141008
:101D500001F10108DDF858A002EA4050039000208C
:101D600005908346054604460490B969461E0898C6
:101D70008847AAF1010A0290BAF1000F3BDD0298F0
:101D80002E2815D01021FFF732FD00282EDB4FF052
:101D9000010B0599014317D0B9F1000F0BDB4A463F
:101DA000C117FFF7B8FF05430C43A9F1040905E08B
:101DB000012004900BE008B145F0010501200590D9
:101DC000049820B9361D02E0049800B1361FB969A5
:101DD000089808F101088847BBF1000FAAF1010A31
:101DE0000290C9D00999C1F80080C5E7029870280F
:101DF00008D0502806D0F96908988847BBF1000F31
:101E000014D04FE0002002900120BBF1000F04909D
:101E100009D0B969089808F101088847AAF10109B1
:101E2000B9F1000F07DCF969089888476FF00100E5
:101E30000BB0BDE8F08F2B2804D02D280CD14FF02B
:101E4000FF300490B969089808F101088847A9F1A2
:101E50000109B9F1000FE6DD411CE4D00A21FFF7CA
:101E6000C6FC0028DFDB029908F1010801EB8101C3
:101E700000EB41000290B969089888470A21FFF7F2
:101E8000B6FC099AA9F10109B9F1000FC2F8008066
:101E900001DD0028E7DAF969089888470499029873
:101EA00000FB016655EA040004D004F0404109003B
:101EB00002D006E0039898E0A40044EA9574AD00CF
:101EC000B61E04F00041080002D16D196441761E6F
:101ED000159810F0240F03D04FF00B095C4803E075
:101EE0004FF028096FF07D008246564507DAAAEBCD
:101EF00006018944B9F1410F01DD4FF0410901208C
:101F00000021A9F10102FFF706FF024628400B4617
:101F10002140084301D0012100E00021501E029120
:101F200043F1FF3128402140084301D0012000E067
:101F300000200299834651EA0B014FD00021084648
:101F40004FF00000039900F4400039B100EB80002D
:101F50004FF4400100EBD07001EA600080150128C9
:101F600002DD4FF0FF3000E013D0401C36D0029865
:101F700060B3BBF1000F0CD14A4601200021FFF7EE
:101F8000CAFE28402140084301D0012000E0002083
:101F9000E0B101204A460021FFF7BDFE034640198B
:101FA0000A4661412D1A8C4111D3B9F1400F09DD68
:101FB000159810F0240F02D0AAF1340603E0AAF11C
:101FC000170600E0761C00254FF0004406E05B1E7B
:101FD00042F1FF3220EA030521EA0204CAF10100BE
:101FE000B04206DA1B490398084301900020009094
:101FF0000EE0039AC4F3D321E80A0A43164940EAE3
:1020000044500A433146CDE90002684604F00AFE16
:10201000159810F0240F0BD01598C00715D138680B
:10202000DDE90012031D3B600068C0E900120CE00E
:1020300002A8694604F090FD1598C00705D13868DC
:10204000029A011D3960006802604046F0E6000017
:1020500002FCFFFF0000F07F0000F03F2DE9FF4F82
:1020600092461D4685B04FF00041DDE9124BDDE997
:1020700014727F1E01EA4B50414940F0FF4940EA8B
:102080000108002122F020004928049102D04E28A6
:1020900028D04CE03BA0012607C88DE80700A969BD
:1020A0000698641C88477F1E014606D41DF806006A
:1020B00018B121F0200181420BD0E96906988847C8
:1020C000032E34D0082E32D06FF0010009B0BDE8E5
:1020D000F08F761C032E01D0082EE0D1601CCAF8C8
:1020E0000000DCE7A9690698641C88477F1E2AD493
:1020F00020F02000412826D1A9690698641C884751
:102100007F1E20D420F020004E281CD1A9690698FB
:10211000641C88477F1E48F4002849F48009CAF8E7
:10212000004001D4282806D0E969069888475FEA6C
:10213000CB7012D022E0A9690698641C88477F1EE4
:1021400001D4002803DAE96906988847BCE7292802
:10215000F1D1641CCAF80040E9E71BF0240F07D056
:1021600028680499031D2B600068C0E9001805E089
:102170002868021D2A600068C0F800902046A5E784
:102180000000F07F494E46494E4954590000000076
:1021900001491820ABBEFEE7260002007047000090
:1021A00070B5ADF5816D02A84FF48061FEF71BFAA2
:1021B000DAA000F013FA642000F0F2FC40F22816D6
:1021C000C2F200063078012814D10020307040F2AD
:1021D0002C1047F61631C2F20000C0F60001FEF7DF
:1021E000D1F920BB40F22C10C2F200004FF4806104
:1021F000FEF7F9F9642000F0D3FC3078012814D1FF
:102200000020307040F22C1047F61631C2F2000068
:10221000C0F60001FEF7B6F948B940F22C10C2F240
:1022200000004FF48061FEF7DEF900203070BDA0A1
:1022300000F0D4F94FF47A7000F0B2FC3078012845
:1022400014D10020307040F22C1047F61631C2F243
:102250000000C0F60001FEF795F928BB40F22C10F3
:10226000C2F200004FF48061FEF7BDF94FF47A70BE
:1022700000F096FC3078012814D10020307040F234
:102280002C1047F61631C2F20000C0F60001FEF72E
:1022900079F948B940F22C10C2F200004FF4806185
:1022A000FEF7A1F90020307002ACA2A1A7A2AAA358
:1022B0002046FEF713F8204600F090F94FF4FA504C
:1022C00000F06EFC3078012814D10020307040F20C
:1022D0002C1047F61631C2F20000C0F60001FEF7DE
:1022E00051F928BB40F22C10C2F200004FF480617B
:1022F000FEF779F94FF4FA5000F052FC30780128DB
:1023000014D10020307040F22C1047F61631C2F282
:102310000000C0F60001FEF735F948B940F22C1074
:10232000C2F200004FF48061FEF75DF900203070CA
:1023300002AC2046FEF738F901462046FEF753F975
:1023400047F60532C0F6000286A589A1204613464D
:102350000095FDF7C3FF204600F040F94FF4FA70F6
:1023600000F01EFC3078012814D10020307040F2BB
:102370002C1047F61631C2F20000C0F60001FEF73D
:1023800001F928BB40F22C10C2F200004FF480612A
:10239000FEF729F94FF4FA7000F002FC30780128BA
:1023A00014D10020307040F22C1047F61631C2F2E2
:1023B0000000C0F60001FEF7E5F848B940F22C1025
:1023C000C2F200004FF48061FEF70DF9002030707A
:1023D00002AC2046FEF7E8F801462046FEF703F976
:1023E00047F6E821C0F600016CA2204640F25B737C
:1023F000FDF774FF204600F0F1F84FF47A7000F01A
:10240000CFFB3078012814D10020307040F22C101E
:1024100047F61631C2F20000C0F60001FEF7B2F82E
:1024200028BB40F22C10C2F200004FF48061FEF78E
:10243000DAF84FF47A7000F0B3FB3078012814D149
:102440000020307040F22C1047F61631C2F2000026
:10245000C0F60001FEF796F848B940F22C10C2F21F
:1024600000004FF48061FEF7BEF80020307002AC2F
:102470002046FEF799F801462046FEF7B4F84FF4DF
:10248000FA6000F08DFB47F6C220C0F6000000F0B5
:10249000A5F84FF47A7000F083FB3078012819D149
:1024A0000020307040F22C1047F61631C2F20000C6
:1024B000C0F60001FEF766F820B1012070700DF53E
:1024C000816D70BD40F22C10C2F200004FF48061AB
:1024D000FEF789F84FF47A7000F062FB307801283B
:1024E00015D10020307040F22C1047F61631C2F2A0
:1024F0000000C0F60001FEF745F80028DDD140F2EB
:102500002C10C2F200004FF48061FEF76CF800203E
:102510003070012070700DF5816D70BD41540D0A51
:102520000000000041542B43574D4F44453D330DAF
:102530000A00000041542B43574A41503D22257365
:10254000222C222573220D0A00000000434D434334
:102550002D313430370000004358363132333435B2
:1025600000000000313233343536373800000000C7
:1025700041542B4D515454555345524346473D30D9
:102580002C312C222573222C222573222C222573F8
:10259000222C302C302C22220D0A00003139322E10
:1025A0003136382E31302E313500000080B540F6FE
:1025B000203040F22C11C2F20000C2F200014FF4B0
:1025C000806201F00DFC40F6B410C2F20000006819
:1025D000016821F00401016080BD000083B070B586
:1025E00081B00DF1140C40F20C068CE80E00C2F222
:1025F00000063178E1B140F22C54C2F200040246E8
:1026000005AB204640F201410093FDF749FE054627
:1026100082B240F62030C2F20000214602F046F9B4
:1026200000212846317001B0BDE8704003B070470A
:10263000FEE70000FEE7000040F67010C2F2000066
:1026400000F04CB940F62C10C2F2000000F046B980
:1026500040F6B410C2F2000000F040B940F6F810A5
:10266000C2F2000000F03AB970470000EFF31080AA
:1026700072B600BFFEE700002DE9F04FC1B040F296
:102680002C11C2F2000101A84FF48072FDF7D2FFB5
:102690003FA1FDF777FF002876D047F60231C0F65C
:1026A000000101A8FDF768FF002867D0804640F2CE
:1026B000280047F60235C2F200003EA4C0F600052D
:1026C00000F132090FF2F40B00F1820A07E000BFBB
:1026D00000202946FDF750FF804600284ED0404696
:1026E0002146FDF7D3FF08B340465946FDF7CEFF1C
:1026F0000028EDD100202946FDF73EFF0646FDF7F4
:102700002DFF0146002840F22A1218BF0121002E99
:10271000C2F200021170DBD03046FDF71FFF024607
:10272000504629A1FDF7DAFDD2E700BF0020294677
:10273000FDF722FF0028CBD0064604F085FA04F00E
:10274000ADFB08284FF0000040F22B11C8BF01205C
:10275000C2F200010870304604F076FA07460E46D1
:1027600004F09CFB0930122848463A46334694BF91
:1027700018A116A1FDF7B2FDAAE700BF40F228108C
:10278000C2F200000021017041B0BDE8F08F00BF2F
:102790004D515454535542524543563A302C2268B9
:1027A0006F6D652F536D6F6B65466C616D65733032
:1027B0003122000022536D6F6B65220022466C614E
:1027C0006D6573220000000025640000252E32662E
:1027D00000000000252E326620000000014690F81F
:1027E0002100022816D10868D1E90FC3026822F03F
:1027F0000E020260026822F001020260012000FA6B
:1028000003F2CCF8042081F821000020002281F896
:1028100020207047042088630120002281F82020B6
:102820007047000090F82110022923D1026840F27D
:10283000040C1168C4F2020C21F00E01116013683F
:102840002F21C4F202018A4223F00103136015DD37
:102850003023C4F202039A421CD04423C4F2020380
:102860009A421BD05823C4F202039A421CD14FF45F
:10287000803321E004218163012070470823C4F2E2
:1028800002039A420ED01C23C4F202039A420BD1D7
:10289000102311E04FF480730EE000BF4FF480531B
:1028A0000AE000BF012307E00CF168014FF08073DC
:1028B0008A4208BF4FF480130121CCF8003080F821
:1028C0002110416B0022002980F8202004BF002045
:1028D000704780B58847002080BD000010B5D0E962
:1028E0000FCE0168DCF800300A6823FA0EF35C07AB
:1028F0002AD512F0040427D00A68920603D40A6885
:1029000022F004020A602F22C4F20202914240F235
:102910000402C4F202025BDD3023C4F202039942D6
:1029200072D04423C4F20203994273D05823C4F2F4
:102930000203994240F07A804FF480231360C16A09
:10294000002940F098806FE09C0727D512F0020420
:1029500024D00A68920606D40A6822F00A020A60A5
:10296000012280F821202F22C4F20202914240F27B
:102970000402C4F202023BDD3023C4F20203994296
:1029800060D04423C4F2020399425FD05823C4F2BA
:102990000203994260D14FF4003365E01B0743D531
:1029A00012F0080208BF10BD0A6822F00E020A6089
:1029B000012101FA0EF2CCF80420816380F8211085
:1029C000016B0022002980F8202054D12CE000BFA8
:1029D0000823C4F20203994222D01C23C4F202034A
:1029E000994223D140231360C16A002943D11BE0DF
:1029F0000823C4F2020399422CD01C23C4F2020320
:102A0000994229D120232FE04FF480631360C16ADB
:102A100089BB09E04FF480431360C16A59BB03E0EE
:102A200004231360C16A31BB10BD00BF02F168040A
:102A30004FF08063A14208BF4FF480031360C16A66
:102A4000C9B9F1E74FF400730EE000BF4FF4005333
:102A50000AE000BF022307E002F168044FF00073B0
:102A6000A14208BF4FF400131360816A00220029BD
:102A700080F82020D8D0BDE8104008470146002843
:102A80004FF0010008BF70472DE9F043D1F800C0B6
:102A90004FF6F873CBF6FD734CF6CD426344CCF69B
:102AA000CC42A3FB02236FF0030202EA930200234D
:102AB000C4F2020301F10C08C1E90F320222D1E98C
:102AC000019E98E8F00181F82120DCF8002043F60F
:102AD000F0739A4342EA090242EA0E0222432A4371
:102AE00032433A4342EA0802CCF8002000228A63CB
:102AF00081F8210081F820200020BDE8F0437047D4
:102B000090F820C0BCF1010F04BF02207047F0B55F
:102B10004FF0010E80F820E090F821C0BCF1010FC9
:102B200026D14FF0020C80F821C04FF0000CC0F805
:102B300038C0D0E900C4C56AC66BDCF80070102C40
:102B400027F00107CCF80070006C0EFA00F07060FE
:102B50000846CCF8043004BF10460A46CCF80800FA
:102B6000CCF80C20DCF8000045B140F00E000DE080
:102B7000002180F820100220F0BD00BF20F00400EA
:102B8000CCF80000DCF8000040F00A00CCF80000AF
:102B9000DCF8000040F00100CCF800000020F0BD9F
:102BA000B0B5044600F018F9054640F20400C2F240
:102BB00000000078611C18BF044400BF00F00CF94D
:102BC000401BA042FAD3B0BD2DE9F04F82B00E6891
:102BD000002E00F0FD8041F20042C4F20102042305
:102BE00040F2004E904208BF03234FF6FF7CC4F230
:102BF000010E009300240123C1F2100C4FF0000AD3
:102C00004FF000094BE000BF41F20002C4F20102A4
:102C1000009F904208BF022704F00C030F229A4045
:102C20002BEA020207FA03F34FEA9A051A4346F821
:102C300025204E6840F20C45F202DEF8082054BF11
:102C400022EA080242EA0802C4F20105CEF808208E
:102C50002A68B30254BF22EA080242EA08022A6044
:102C6000B303DEF8042054BF22EA080242EA080255
:102C7000F303CEF80420DEF800204FF0010354BF28
:102C800022EA080242EA0802CEF800200E680AF1A1
:102C9000010A36FA0AF204F1040400F0998003FAFA
:102CA0000AFB16EA0B08F1D04E68664512DC122EBC
:102CB00056D8DFE806F0350B4D4955555555555555
:102CC0005555555555555545510000BFD1F80C90F7
:102CD00046E000BF4FF6FF72C1F2210296420FDCC0
:102CE0000022C1F2110296421AD00022C1F2120251
:102CF000964215D00022C1F22102964210D02FE058
:102D00000022C1F2220296420AD00022C1F2310210
:102D1000964205D00022C1F23202964220D100BF75
:102D20008A684AB1012A14BFC0F814B0C0F810B0C4
:102D30004FF0080914E000BF4FF0040910E000BF95
:102D4000CA6802F104090BE04FF0000908E000BF77
:102D5000CA6802F1080903E0CA6802F10C0900BF61
:102D600002462646B8F5807F24BF0432203E17680D
:102D70000F25B54027EA050509FA06F63543156023
:102D8000CA79D2067FF582AF41F21803C4F202037A
:102D90001A68AEF57E7642F001021A601A6802F0F7
:102DA00001020192019A2AF0030256F802B040F69D
:102DB0000002C4F20102904208D040F60042C4F280
:102DC000010290427FF420AF012725E7002723E787
:102DD00002B0BDE8F08F000040F66870C2F200005B
:102DE00000687047002804BF01207047F0B581B02B
:102DF000044690F83D0028B9002084F83C002046A5
:102E000000F050F9242084F83D002068016821F08A
:102E100001010160016841F400410160016821F491
:102E20000041016000F008FB636848F2A16CC0F249
:102E3000010C40F60011C0F23D0163453CBF48F271
:102E40008041C0F21E01884202D2012001B0F0BDD3
:102E50004DF68361C4F21B31A0FB01122168970C6F
:102E6000D1F804E04FF496762EF03F0545EA9245FE
:102E70004D60774348F638160D6AC0F24106A7FB4D
:102E8000067625F03F07634538BF960C721C3A431F
:102E90000A62CA6948F2A0664CF6FF77C0F20106E2
:102EA000B34222EA07020BD801385B00B0FBF3F013
:102EB00001306FF31F30042898BF04201BE000BFCF
:102EC000A768013857B119277B43B0FBF3F00130F5
:102ED0006FF31F3070B100F5804007E003EB430350
:102EE000B0FBF3F001306FF31F3018B100F5004074
:102EF00001E000BF01201043C8610868D4E907233E
:102F000020F0C000104318430860886848F2FF3280
:102F100004F10C0790438CCF18431043A6698860D6
:102F2000C86820F0FF0038433043C860086840F0AC
:102F30000100086000202021206484F83D102063F7
:102F400084F83E0001B0F0BD2DE9F04383B099460E
:102F500016460F460446FFF73FFF94F83D10202920
:102F600024D10546206800BF816989071AD5FFF77B
:102F700033FF411B20681A29F6D381698907F3D5ED
:102F800000202021206384F83D1084F83E00216C4D
:102F900041F02001216484F83C00022003B0BDE828
:102FA000F08300BF94F83C10012903D1022003B044
:102FB000BDE8F083012284F83C200368DDE90B18AA
:102FC0000A9ADB0703D1036843F001030360036837
:102FD00023F400630360212084F83D00402084F83E
:102FE0003E000020206462626185608D3946208544
:102FF0000020CFF6FF70E062204632464B46CDE916
:10300000008501F0C7FC18B1012003B0BDE8F083D2
:10301000208D98B9204641462A4601F01FFD88B30D
:10302000206C0428F0D12068016841F4007101602F
:10303000012003B0BDE8F0830004EBD020464146F8
:103040002A4601F0BBFE0028EAD1616A22680846E0
:1030500010F8013B1361238D6062581E2085678D37
:10306000013F678557697F07E6D50704E4D04878B4
:103070001061881C6062981E2085618D0139618510
:10308000DAE700BF2068016841F400710160202088
:1030900084F83D00002084F83E0084F83C0003B032
:1030A000BDE8F08310B586B0016845F20040C4F277
:1030B000000081424FF00001CDE90411CDE9021179
:1030C00002D006B010BD00BF41F21804C4F20204E1
:1030D000216800F5384041F008012160216801F0C5
:1030E000080101910199C02102911221039103214C
:1030F000059102A9FFF768FD606840F40010606068
:10310000606800F400100190019806B010BD000046
:1031100040F2040040F66871C2F20000C2F2000101
:1031200000780A68104408607047000080B542F2D9
:103130000000C4F20200016841F0100101600320A8
:1031400000F08CF8002000F005F800F027F80020CF
:1031500080BD000070B540F20406C2F2000640F2E5
:1031600024013278C2F200014FF47A730968B3FB8C
:10317000F2F20446B1FBF2F1084600F085FB0F2C99
:103180004FF0010508D838B94FF0FF302146002232
:10319000002500F037F87460284670BD82B041F217
:1031A0001800C4F202000168022241F0010101602E
:1031B000016801F0010101910199416841F08051DC
:1031C0004160406800F08050009000980420C4F2F4
:1031D0000100016862F31A61016002B070470000EB
:1031E000002848BF704700F01F01012202FA01F1D8
:1031F0001C2202EAD0004EF20012CEF200028150F0
:103200007047000010B54EF60C5CCEF2000CDCF8F6
:103210000030C3F3022E8EF00704042C28BF0424D0
:10322000BEF103034FF0FF3E0EFA04F438BF002353
:10323000A14399400EFA03F39A43114300F00F02A1
:1032400000F160430901043A03F564436244002835
:1032500048BF02F10C03197010BD00004EF60C516E
:10326000CEF200010A684FF6FF031A4060F30A220B
:1032700042F0806040F0FD7008607047002804BF95
:10328000012070472DE9F04381B042F20008C4F2FA
:1032900002080446D8F800000D4600F007008842F6
:1032A0000CD2D8F8000020F007002843C8F800002E
:1032B000D8F8000000F00700A8426CD1206841F265
:1032C00004098107C4F2020917D5410705D5D9F8C9
:1032D000001041F4E061C9F80010010705D5D9F8E4
:1032E000001041F46051C9F80010D9F80010A2682C
:1032F00021F0F0011143C9F80010C00742D1D8F8FD
:10330000000000F00700A8420CD9D8F8000020F017
:1033100007002843C8F80000D8F8000000F00700B4
:10332000A84238D12068410707D5D9F80010E268D3
:1033300021F4E0611143C9F80010000708D5D9F85D
:103340000000216920F4605040EAC100C9F8000083
:10335000D9F8002002F00C00082841F20020C0F249
:103360007A004DD147F6B223C2F38341C0F6000381
:10337000595CD20338D440F60010C0F23D004843F7
:103380003EE000BF606859F8041C022808D00128FC
:1033900026D1890306D4012001B0BDE8F08300BF27
:1033A0008901F8D5D9F8001021F003010843C9F8C4
:1033B0000000FFF711FD064641F28837D9F80000FA
:1033C000616800F00C00B0EB810F98D0FFF704FDAE
:1033D000801BB842F2D9032001B0BDE8F08300BFE2
:1033E0008907D8D5DEE700BFD9F8002047F6B0231B
:1033F000C2F34042C0F600039A5C4843B0FBF2F0CF
:10340000D9F8001047F29022C1F30311C0F6000270
:10341000515C40F2240220FA01F140F20800C2F2AD
:1034200000000068C2F200021160FFF793FE002066
:1034300001B0BDE8F083000040F2240041F2040135
:10344000C2F20000C4F202010068096847F2A0223B
:10345000C1F30221C0F60002515CC8407047000071
:1034600040F2240041F20401C2F20000C4F2020161
:103470000068096847F2A022C1F3C221C0F6000229
:10348000515CC84070470000002804BF012070470D
:103490002DE9F04182B00446007841F20006C007F1
:1034A000C4F202060CD0706800F00C00042840F052
:1034B00081803068800303D56068002800F0468171
:1034C000207880071BD5706810F00C0F09D0706849
:1034D00000F00C00082840F087807068C00300F1FD
:1034E00083803068800703D52069012840F02E8151
:1034F0003068616920F0F80040EAC100306020784F
:10350000000713D4207840072CD4E569002D00F083
:103510001881706800F00C00082840F0A780012D89
:1035200040F00481012002B0BDE8F081A0690028CC
:1035300000F084800020C4F242200121C0F88014F1
:10354000FFF74AFC054600BF706A800700F1B280B1
:10355000FFF742FC401B0228F6D9032002B0BDE869
:10356000F08100BFF0695FEAC00808D4F06940F05C
:103570008050F061F06900F080500090009847F2B0
:103580000007C4F200073868C00549D4386840F421
:1035900080703860FFF720FC054600BF3868C00522
:1035A0003ED4FFF719FC401B6428F7D9032002B072
:1035B000BDE8F081706800F00C00082803D1706845
:1035C000C0033FF576AF61683068002900F00C81D8
:1035D000B1F5A02F00F00081B1F5803F40F01A81D5
:1035E00040F480301CE100BF2069002840F2000058
:1035F000C4F2422000F0888001210160FFF7ECFB5B
:10360000054600BF306880073FF572AFFFF7E4FB67
:10361000401B0228F6D9032002B0BDE8F08100BFAC
:10362000E168306A002900F09D80052900F0928051
:10363000012940F0AF8040F00100B1E00020C4F269
:1036400042200021C0F88014FFF7C6FB054600BFEA
:10365000706A80077FF556AFFFF7BEFB401B02285C
:10366000F6D9032002B0BDE8F08100BF0027C4F204
:10367000422700203866FFF7AFFB022D05460DD12B
:103680003068800140F1DE80FFF7A6FB401B022876
:103690004FF00300F4D902B0BDE8F081306880013A
:1036A0004FD5FFF799FB401B02284FF00300F5D9D7
:1036B000F1E700BF40F22400C2F20000006844F6C7
:1036C000D351C1F26201A0FB0101480A019000BF81
:1036D00000BF0198411E002801913FF413AF00BFC5
:1036E0000198411E002801913FF40CAF00BF0198E2
:1036F000411E002801913FF405AF00BF0198411E13
:1037000000280191E4D1FDE600210160FFF764FB90
:10371000054600BF306880077FF5F1AEFFF75CFB20
:10372000401B02284FF00300F4D9B4E77068216A07
:1037300000F480328A4209D1616A00F47010884234
:1037400004D1002002B0BDE8F08100BF012002B02A
:10375000BDE8F08140F004003062306A40F00100C2
:103760001EE000BF20F001003062306A20F004004B
:103770003062FFF731FB054641F28837306A800737
:1037800020D5FFF729FB401BB8424FF00300F5D9C5
:1037900081E700BF20F001003062306A20F00400B1
:1037A0003062FFF719FB054641F28837306A80071F
:1037B00008D4FFF711FB401BB842F7D9032002B031
:1037C000BDE8F081B8F1000F3FF59FAEF06920F041
:1037D0008050F06199E600BF40F48020306030688E
:1037E00040F480301CE000BF20F48030306030684E
:1037F00020F480203060FFF7EFFA05463068800340
:103800007FF55EAEFFF7E8FA401B64284FF0030037
:10381000F4D940E720F480303060306820F4802014
:103820003060FFF7D9FA0546306880033FF548AEAF
:10383000FFF7D2FA401B6428F6D9032002B0BDE896
:10384000F08100BF206AB0F5803F05D17168A268A1
:1038500021F40031114371607168626A21F47411BE
:1038600011430843706001203866FFF7B5FA04463B
:10387000306880013FF565AFFFF7AEFA001B022804
:103880004FF00300F4D906E7411E0020B0EB116FA2
:103890001CBF012070474EF21002CEF200025160B0
:1038A0004EF62351CEF20001F0230B7007219060F9
:1038B0001160704790F83C20012A4FF0020236D088
:1038C00010B580F83D200268D2F804E0D2F808C0B4
:1038D0000C682EF07003234340F2FF74C4F200041E
:1038E000A24253600ADCB2F1804F13D040F2004391
:1038F000C4F200039A420DD011E000BF42F600432B
:10390000C4F201039A4205D040F60003C4F200035A
:103910009A4204D149682CF0800319439160012137
:10392000002280F83D1080F83C20BDE81040104691
:103930007047000090F83C30012B04BF0220704714
:103940004FEAB202032A00F2F1802DE9F043DFE8EA
:1039500002F003A53B7500BF036842F600461D6AEE
:103960001A6AC4F2010622F001021A621A465C6861
:1039700052F818CFB3428E68D1F800E025F0020566
:1039800045EA06050CD1CE68D1E9057824F44074E7
:1039900025F00C0526F004063C43354344EA0804B0
:1039A0002CF0730747EA0E075C609F614F68096956
:1039B0005F631D629F6947F008079F619F6927F059
:1039C00004079F61A6E000BF036842F600461D6A37
:1039D0001A6AC4F2010622F480721A621A46D3F8F7
:1039E00004C052F81CEFB3428E680C6825F40075D1
:1039F00045EA06250FD1CE68D1E90598360240F296
:103A0000FF4725F44065BE4335432CF4405748EA50
:103A1000090647EA061C2EF073072743C3F804C0C3
:103A2000DF614F680969DF631D62DF6947F00807DE
:103A3000DF61DF6927F00407DF616BE0036842F6AE
:103A40000047D3F820C01A6AC4F2010722F480525A
:103A50001A621A465C6852F81C5FD1F800E08E6862
:103A6000BB4204D14F6924F4804444EA87142CF407
:103A7000005747EA063725F4E64646EA0E265C601C
:103A8000DE614E6809691E641F62DF6947F40067E2
:103A9000DF61DF6927F48067DF613AE0036842F69F
:103AA00000461D6A1A6AC4F2010622F010021A6268
:103AB0001A46D3F804C052F8184FB3428E68D1F8B2
:103AC00000E025F0200545EA06150FD1CE68D1E9C2
:103AD00005986FF0400725F0C00507EA0616354344
:103AE0002CF4406748EA090647EA860C24F4E644C9
:103AF00044EA0E27C3F804C09F614F6809699F63B9
:103B00001D629F6947F400679F619F6927F4806782
:103B10009F6109021368194311600021BDE8F04359
:103B2000002280F83C200846704700BF0121002297
:103B300080F83C2008467047002804BF01207047E9
:103B400010B590F83D1031B9002180F83C100446C2
:103B500000F068F82046022180F83D10016840F22C
:103B6000FF740B68C4F2000442F6004CA142C4F298
:103B7000010C15DCB1F1804F1AD040F20042C4F2C2
:103B80000002914214D0A14218DCB1F1804F1DD047
:103B900040F20042C4F20002914217D01AE000BF86
:103BA000614505D040F60002C4F200029142EAD11C
:103BB000826823F070031343A142E6DD614505D01E
:103BC00040F60002C4F20002914203D1026923F4DC
:103BD00040731343846923F08002D0F804E0C36883
:103BE000224361450A60CB62C1F828E002D14269F4
:103BF000CCF8302001224A6180F8462080F83E202F
:103C000080F83F2080F8402080F8412080F8422052
:103C100080F8432080F8442080F8452080F83D203B
:103C2000002010BD0068B0F1804F18BF704781B010
:103C300041F21C00C4F20200016841F00101016080
:103C4000006800F001000090009801B0704700008B
:103C5000C1B1042908D0082914BF41224022825C46
:103C6000012A05D016E000BF3F22825C012A11D153
:103C70000222082910D0042914BF80F8412080F8BE
:103C80003F200BE090F83E20012A03D1022280F869
:103C90003E2003E00120704780F84020006801F0DA
:103CA0001F010122036A8A4023EA02010162036ABA
:103CB00042F64441C4F201011A43A1F1440398427F
:103CC00002620FD040F2FF71C4F20001884213DC9F
:103CD000B0F1804F1CD040F20041C4F20001884294
:103CE00016D01CE00A6842F400420A6040F2FF71FC
:103CF000C4F200018842EBDD42F60041C4F201014A
:103D0000884205D040F60001C4F20001884206D185
:103D1000816801F00701062904BF0020704701688F
:103D200041F00101016000207047000080B5026889
:103D300001F01F0C012303FA0CFE136A42F6444CF7
:103D400023EA0E03C4F2010C1362D2F820E0ACF1B6
:103D500044039A42C2F820E013D15CF824EC41F20B
:103D600011131EEA030F0CD1D2F820E040F24443B5
:103D70001EEA030F05D1DCF8003023F40043CCF831
:103D80000030D2F820C041F211131CEA030F06D113
:103D9000D2F820C040F244431CEA030F14D0082993
:103DA00018D004290AD000294FF0010114BF80F86F
:103DB000411080F83E10002080BD00BF012180F836
:103DC0003F10002080BD00BF136823F00103136083
:103DD0000829E6D1012180F84010002080BD0000B4
:103DE00090F84230202B0BD194460A4600294FF020
:103DF000010118BFBCF1000F06D10846704700BF93
:103E000002210846704700BF70B582B001210163EE
:103E10000025222145638262A0F82CC0456480F809
:103E200042100168C36B45F6155445F6756E45F6AC
:103E30009936C0F60004C0F6000EC0F60006C3E9CD
:103E40000A4EC3E90C650431044618466346FEF782
:103E500057FE0195216820460A6801924968019140
:103E60000199216931B300BF016851E8031F02685D
:103E700041F4807142E80313E3B1016851E8031F84
:103E8000026841F4807142E803139BB1016851E874
:103E9000031F026841F4807142E8031353B10168C3
:103EA00051E8031F026841F4807142E80313002BBC
:103EB000DAD100BF016851E8051F026841F0010135
:103EC00042E80513BBB3016851E8051F026841F0E1
:103ED000010142E8051373B3016851E8051F026848
:103EE00041F0010142E805132BB3016851E8051FB9
:103EF000026841F0010142E80513002BDAD11AE013
:103F0000016851E8051F026841F0400142E80513CD
:103F1000DBB1016851E8051F026841F0400142E849
:103F2000051393B1016851E8051F026841F0400193
:103F300042E805134BB1016851E8051F026841F0E2
:103F4000400142E80513002BDAD1016B012933D17E
:103F50000021009101680A68009249680091009967
:103F6000016851E8031F026841F0100142E80313A1
:103F7000DBB1016851E8031F026841F0100142E81B
:103F8000031393B1016851E8031F026841F0100167
:103F900042E803134BB1016851E8031F026841F086
:103FA000100142E80313002BDAD1002102B0BDE872
:103FB00070400846704700BF012102B0BDE8704064
:103FC0000846704710B540F62032C2F20002904217
:103FD0000A4625D040F6D821C2F20001884218BF17
:103FE00010BD40F22810C2F20000002140F66834F3
:103FF000017040F62030C2F20004C2F200002146F7
:1040000000F054FC40F6D820C2F2000021464FF4E4
:104010008062FFF7E5FE40F62C10C2F2000028E0B7
:1040200040F6D82040F22C11C2F20000C2F200018A
:1040300000F03CFC40F22911C2F20001097840F284
:104040002810C2F2000001220029027018BFFEF7FA
:1040500013FB40F6203040F22C11C2F20000C2F2F5
:1040600000014FF48062FFF7BBFE40F6B410C2F2CD
:1040700000000068016821F00401016010BD00002B
:1040800070470000B0B582B001680A68CC684B691F
:1040900002F02F05202D04F0200505D125B102B036
:1040A000BDE8B04001F04EBF5FEA027C1EBF03F0E6
:1040B000010E04F4907313EB0E0341D1036BD5068C
:1040C00018D5012B16D114F0100313D00022019241
:1040D0000A6801924A680192019A496949064BD4DB
:1040E000818DC28DC38D002B18BF914240F0F481A9
:1040F00002B0B0BD13062DD514F080032AD090F87D
:104100004120212AF4D18268B2F5805F03D102698F
:10411000002A00F06782026A531C036212784A6028
:10412000C28C013A1304C284E2D1C86820F0800036
:10413000C860C86840F04000C86002B0B0BD00BFB1
:10414000D30718BF14F4807340F0D080530700F1F8
:10415000D380D8E05206CBD514F04002C8D0CA684C
:1041600022F04002CA60202180F8411002B0BDE870
:10417000B04000F0FDBB00BFC16B0A68526893B24B
:10418000002BB5D0858DAB42B2D2C285896920297A
:1041900000F0A180016851E8031F026821F48071DA
:1041A00042E80313DBB1016851E8031F026821F400
:1041B000807142E8031393B1016851E8031F02685C
:1041C00021F4807142E803134BB1016851E8031FE9
:1041D000026821F4807142E80313002BDAD10168F0
:1041E00051E8051F026821F0010142E80513C3B33D
:1041F000016851E8051F026821F0010142E805133A
:104200007BB3016851E8051F026821F0010142E813
:10421000051333B3016851E8051F026821F001015D
:1042200042E80513002BDAD11BE000BF016851E81A
:10423000051F026821F0400142E80513DBB1016867
:1042400051E8051F026821F0400142E8051393B1CF
:10425000016851E8051F026821F0400142E805139A
:104260004BB1016851E8051F026821F0400142E8A6
:104270000513002BDAD1202180F8421000210163C0
:10428000016851E8031F026821F0100142E803139E
:10429000DBB1016851E8031F026821F0100142E818
:1042A000031393B1016851E8031F026821F0100164
:1042B00042E803134BB1016851E8031F026821F083
:1042C000100142E80313002BDAD1C16B0446084603
:1042D000FEF784FA204602214163818DC28D891A3E
:1042E00089B202B0BDE8B040FFF76CBE436C43F04A
:1042F00001034364530706D5BEF1000F03D0436C9E
:1043000043F002034364930706D5BEF1000F03D0C8
:10431000436C43F004034364BCF1000F06D55EEA2E
:10432000050303D0436C43F008034364436C002B44
:104330003FF4DEAE920605D525B1044601F002FE3B
:10434000216820464969426C01F0400102F00802F0
:10435000891800F0B98000BF016851E8031F0268A6
:1043600021F4907142E80313BBB3016851E8031FC5
:10437000026821F4907142E8031373B3016851E8B5
:10438000031F026821F4907142E803132BB3016804
:1043900051E8031F026821F4907142E80313002BD7
:1043A000DAD11AE0016851E8051F026821F0010125
:1043B00042E80513DBB1016851E8051F026821F0EE
:1043C000010142E8051393B1016851E8051F026835
:1043D00021F0010142E805134BB1016851E8051FC6
:1043E000026821F0010142E80513002BDAD1016BCC
:1043F000012924D1016851E8031F026821F010014E
:1044000042E80313DBB1016851E8031F026821F0A1
:10441000100142E8031393B1016851E8031F0268D9
:1044200021F0100142E803134BB1016851E8031F6A
:10443000026821F0100142E80313002BDAD1202199
:1044400080F842100021016301684969490640F182
:10445000C380016851E8051F026821F0400142E86D
:104460000513DBB1016851E8051F026821F0400126
:1044700042E8051393B1016851E8051F026821F075
:10448000400142E805134BB1016851E8051F02687D
:1044900021F0400142E80513002BDAD1C16B00295D
:1044A00000F09A8045F68D32C0F6000204460846B8
:1044B0004A63FEF7B7F900283FF41AAEE06B416B90
:1044C00002B0BDE8B04008470446FFF7D9FD002020
:1044D000606402B0B0BD00BF891A00BF026852E834
:1044E000032F036822F4907243E80325BDB30268EA
:1044F00052E8032F036822F4907243E8032575B352
:10450000026852E8032F036822F4907243E80325FF
:104510002DB3026852E8032F036822F4907243E837
:104520000325002DDAD11AE0026852E8052F03684E
:1045300022F0010243E80525DDB1026852E8052FAB
:10454000036822F0010243E8052595B1026852E8AC
:10455000052F036822F0010243E805254DB10268EA
:1045600052E8052F036822F0010243E80525002DDB
:10457000DAD1202280F8422000220263026852E849
:10458000032F036822F0100243E80325DDB102681F
:1045900052E8032F036822F0100243E8032595B187
:1045A000026852E8032F036822F0100243E8032553
:1045B0004DB1026852E8032F036822F0100243E86D
:1045C0000325002DDAD1022289B2426302B0BDE890
:1045D000B040FFF7F7BC00BF02B0BDE8B040FFF746
:1045E0004FBD00BF026A32F8023B6FF35F234B609E
:1045F000026295E5002804BF0120704710B504460B
:1046000090F8410028B9002084F84000204600F0CE
:1046100063F8242084F841002068D4E90212C368BA
:1046200023F40053C360036923F440531A43026127
:10463000D4E904231143C268194341F20C639A433D
:104640001143C1604169A26921F44071114343F6ED
:104650000002C4F201029042416103D0FEF7ECFE79
:1046600002E000BFFEF7FCFED4E900231921484315
:104670009900B0FBF1F048F21F5CC5F2EB1CA0FB07
:104680000C314FF69C734909C0F6FF7301FB030020
:10469000322303EB0010A0FB0C03F02000EA5310C0
:1046A00000EB0110C3F3431108449060106920210E
:1046B00020F490401061506920F02A005061D068C9
:1046C00040F40050D0600020606484F8411084F809
:1046D0004210606310BD00002DE9F04186B0044631
:1046E000006844F20041C4F20001002788420597A7
:1046F000CDE90377029769D043F60001C4F20101C6
:10470000884240F0CC8041F21800C4F202000168F7
:1047100040F6000541F4804101600168C4F20105E2
:1047200001F4804101910199016802AE41F0040158
:104730000160006840F2440800F004000190019814
:104740004FF4007002900220039003200590284649
:104750003146C4F20208FEF737FA4FF48060029047
:10476000002728463146CDE90377FEF72DFA40F6BB
:104770002C1508F11400C2F200058026C5E90007D7
:104780002846C5E90276C5E90477C5E90677FEF74C
:1047900075F9002818BFFDF769FFE5636C6240F604
:1047A0007015C2F200051020C5E900802846C5E951
:1047B0000276C5E90477C5E90677FEF75FF90028B8
:1047C0004FF0250618BFFDF751FF5EE041F21800DB
:1047D000C4F20200416840F6000541F40031416036
:1047E0004168C4F2010501F40031019101990168A9
:1047F00002AE41F004010160006840F2440800F09C
:1048000004000190019804200290022003900320EC
:10481000059028463146C4F20208FEF7D5F9082073
:10482000CDE90207284631460497FEF7CDF940F658
:10483000B41508F12800C2F200058026C5E900077A
:104840002846C5E90276C5E90477C5E90677FEF78B
:1048500015F9002818BFFDF709FFE5636C6240F603
:10486000F81508F13C00C2F200051021002285E88D
:1048700047002846C5E90422C5E90622FEF7FEF8EE
:104880004FF0260608B1FDF7F1FE30460221002266
:10489000A5636C62FEF7B6FC3046FEF7A1FC06B0DD
:1048A000BDE8F081704700007047000090F841308B
:1048B000202B09D1944600294FF0010218BFBCF10A
:1048C000000F05D11046704702221046704700BF06
:1048D00070B5002221230162A0F824C0A0F826C0F0
:1048E000426480F841300468836B45F68D6E45F66E
:1048F0003D7545F69936C0F6000EC0F60005C0F6C7
:104900000006C3E90AE5C3E90C62221D0446184605
:104910006346FEF7F5F8216820466FF040020A6012
:10492000016851E8051F026841F0800142E8051363
:10493000DBB1016851E8051F026841F0800142E8DF
:10494000051393B1016851E8051F026841F0800129
:1049500042E805134BB1016851E8051F026841F0B8
:10496000800142E80513002BDAD1002070BD000061
:1049700040F62031C2F20001884218BF704740F271
:104980000C00C2F200000121017070477047000066
:10499000FEE700002DE9F04383B0044600680F46AF
:1049A00001680A9D0B9E41F4807199469046016012
:1049B00020464FF0011100222B46009600F0ACF883
:1049C00050B120680068C00544BF4FF400702064F7
:1049D000032003B0BDE8F083206807F0FE01016109
:1049E0000221C0F2010120462A46334600F07AF93E
:1049F00020B1012003B0BDE8F08300BF0020029089
:104A000020683246416902918069294602900298E5
:104A1000204600F0D3F958B1206C0428E9D1206871
:104A2000016841F400710160012003B0BDE8F0832A
:104A30002068B9F1010F0AD04FEA18210161204620
:104A40002946324600F0BAF90028E5D120685FFA1D
:104A500088F10161002003B0BDE8F08370B5036800
:104A6000044653F8140F400711D40E46481C29D0B1
:104A700086BB00BF1868400527D4FEF7ADF9236850
:104A800053F8140F400737D518684007F2D50020B7
:104A900070BD00BF18684007F9D41868400514D4E9
:104AA00018684007F3D4186840050ED4186840070A
:104AB000EDD41868400508D4186840074FF000008E
:104AC00048BF70BD18684005E4D56FF48060186079
:104AD000042012E0154603E053F8140F4007D6D423
:104AE00018684005F1D4FEF777F9401B2368B042FF
:104AF000F2D958694007EFD42020002120222163F9
:104B000084F83D2084F83E10226C1043206401207C
:104B100084F83C1070BD00002DE9F04105460068A6
:104B20001E46144601F47F0201338FB242D0DDF8F5
:104B30001880B2F5803F40F0878040693840C01B44
:104B4000B0FA80F04009A04240F0C8804EB924E09D
:104B500040693840C01BB0FA80F04009A04240F0E4
:104B6000BD80FEF739F9A0EB08012868B142EFD902
:104B700041693940C91BB1FA81F14909A142E7D124
:104B80009BE000BF40693840C01BB0FA80F040098C
:104B9000A0424FF0000040F0A280FEF71DF9286807
:104BA00041693940C91BB1FA81F14909A142E9D1F2
:104BB00083E000BFB2F5803F24D100BF4169394096
:104BC000C91BB1FA81F14909A14240F087804169CE
:104BD0003940C91BB1FA81F14909A14240F07E80F8
:104BE00041693940C91BB1FA81F14909A14275D126
:104BF00041693940C91BB1FA81F14909A142DDD0AF
:104C00006CE000BF81693940C91BB1FA81F14909E3
:104C1000A14263D181693940C91BB1FA81F14909C7
:104C2000A1425BD181693940C91BB1FA81F14909BF
:104C3000A14253D181693940C91BB1FA81F14909B7
:104C4000A142DFD04AE000BF80693840C01BB0FA03
:104C500080F04009A04241D146B923E08069384044
:104C6000C01BB0FA80F04009A04237D1FEF7B4F87B
:104C7000A0EB08012868B142F0D981693940C91B0D
:104C8000B1FA81F14909A142E8D116E080693840C2
:104C9000C01BB0FA80F04009A0424FF0000018BFDE
:104CA000BDE8F081FEF798F8286881693940C91B92
:104CB000B1FA81F14909A142E8D1002020212863FD
:104CC00085F83D1085F83E00296C41F020012964EB
:104CD00085F83C000120BDE8F08100BF0020BDE860
:104CE000F0810000F0B581B0044600681D464369BC
:104CF0008FB203EA0701B94202D1002001B0F0BD32
:104D00004169164601323CD0490512D47EB300BF3A
:104D1000FEF762F8411B2068B14203D9416939406E
:104D2000B9422BD141693940B942E6D041694905C0
:104D3000EED5016841F4007101606FF4806141615A
:104D4000042000212022216384F83D2084F83E10B5
:104D5000226C1043206484F83C10012001B0F0BDA7
:104D600041693940B942C8D041694905E1D4FEF7EB
:104D700033F8206841693940B942F1D02020E0E79A
:104D800041694905D5D441693940B942B5D0416935
:104D90004905CED441693940B942AED0416949058F
:104DA000C7D441693940B942A7D041694905C0D447
:104DB00041693940B942E3D19FE7000070B503680B
:104DC000044653F8140F000611D40E46481C29D08F
:104DD00086BB00BF1868400527D4FDF7FDFF236898
:104DE00053F8140F000637D518680006F2D50020D6
:104DF00070BD00BF18680006F9D41868400514D4C7
:104E000018680006F3D4186840050ED41868000628
:104E1000EDD41868400508D4186800064FF000006B
:104E200048BF70BD18684005E4D56FF48060186015
:104E3000042012E0154603E053F8140F0006D6D400
:104E400018684005F1D4FDF7C7FF401B2368B04246
:104E5000F2D958690006EFD42020002120222163D6
:104E600084F83D2084F83E10226C10432064012019
:104E700084F83C1070BD000080B582B041F214008F
:104E8000C4F202000168002241F0010101600068E3
:104E9000012100F00100019001980E20FEF7B2F907
:104EA0000E20FEF79DF90F2001210022FEF7AAF93E
:104EB0000F20FEF795F9102001210022FEF7A2F93C
:104EC0001020FEF78DF9112001210022FEF79AF93A
:104ED000112002B0BDE88040FEF782B981B041F2F6
:104EE0001800C4F20200016841F01001016001687D
:104EF00001F0100100910099016841F0200101606A
:104F0000016801F0200100910099016841F004015D
:104F10000160016801F0040100910099016841F00D
:104F200008010160006800F008000090009801B0DE
:104F30007047000080B540F63C2045F20041C2F2C7
:104F40000000C4F2000148F2A06200234FF4804C3C
:104F5000C0F2010280E80E00C0E9033CC0E905335D
:104F6000C0E90733FDF73EFF002808BF80BDBDE85C
:104F70008040FDF77BBB0000B0B590B040F69020BC
:104F80000021C2F2000040F2E735CDE90811CDE979
:104F90000611CDE904114FF080424723C0E9021504
:104FA00001618021C0E900238161FEF7C5FD002871
:104FB00018BFFDF75BFB40F69020C2F2000008A985
:104FC000FEF778FC002818BFFDF750FB602040F684
:104FD000902401904FF4FA70C2F200040290002570
:104FE00001A92046002203950595FEF7A3FC0028A1
:104FF00018BFFDF73BFB2068CDE90E55B0F1804F9F
:105000000D950C9502D010B0B0BD00BF41F2180054
:10501000C4F20200016841F00401016000680CA9BB
:1050200000F004000B900B9801200C9002200D90D2
:105030000F9040F60000C4F20100FDF7C5FD10B06E
:10504000B0BD000080B540F6D82043F60001C2F2A2
:105050000000C4F2010100234FF00C0C4FF4E132C8
:1050600080E80E00C0E90333C0E905C3C361FFF760
:10507000C1FA002808BF80BDBDE88040FDF7F6BA40
:1050800080B540F6203044F20041C2F20000C4F284
:10509000000100234FF00C0C4FF4E13280E80E00C9
:1050A000C0E90333C0E905C3C361FFF7A3FA0028D1
:1050B00008BF80BDBDE88040FDF7D8BAFEE700001C
:1050C000FEE700002DE9F04F85B040F63C240025B6
:1050D0004FF480760127C2F200040DF1120B0DF19E
:1050E00013084FF0000900BF49F0B0008DF8100020
:1050F00004A8CDE90007204678210022012302966A
:10510000FDF722FF0DF11100CDE9000720467821BF
:10511000002201238DF811500296FDF715FF102093
:105120008DF812002046782100220123CDE900B736
:105130000296FDF709FF4FF0000A00BF20467821D4
:10514000402201238DF81350CDE900870296FDF728
:10515000FBFE0AF101004FFA80FABAF1FF3FEDDCE5
:10516000B9F1070F09F10109BED305B0BDE8F08F11
:1051700070B584B08D2040F63C248DF80D000126DA
:105180000DF10D00C2F200044FF48075CDE9000668
:1051900020467821002201230295FDF7D5FE142038
:1051A0008DF80E000DF10E00CDE9000620467821A5
:1051B000002201230295FDF7C7FEAF208DF80F00F6
:1051C0000DF10F00CDE900062046782100220123D1
:1051D0000295FDF7B9FE04B070BD00002DE9F04165
:1051E00084B0C820FDF7DCFC40F20D06C2F20006D8
:1051F000307840F63C24C2F200048DF80F004FF4E2
:10520000807801270DF10F05204678210022012327
:10521000CDE90057CDF80880FDF796FE707878212B
:105220008DF80F00204600220123CDE90057CDF86C
:105230000880FDF789FEB07878218DF80F002046B0
:1052400000220123CDE90057CDF80880FDF77CFE50
:10525000F07878218DF80F00204600220123CDE957
:105260000057CDF80880FDF76FFE307978218DF872
:105270000F00204600220123CDE90057CDF8088019
:10528000FDF762FE707978218DF80F00204600222C
:105290000123CDE90057CDF80880FDF755FEB07920
:1052A00078218DF80F00204600220123CDE9005718
:1052B000CDF80880FDF748FEF07978218DF80F00D1
:1052C000204600220123CDE90057CDF80880FDF7E4
:1052D0003BFE307A78218DF80F0020460022012312
:1052E000CDE90057CDF80880FDF72EFE707A7821C1
:1052F0008DF80F00204600220123CDE90057CDF89C
:105300000880FDF721FEB07A78218DF80F00204645
:1053100000220123CDE90057CDF80880FDF714FEE7
:10532000F07A78218DF80F00204600220123CDE984
:105330000057CDF80880FDF707FE307B78218DF807
:105340000F00204600220123CDE90057CDF8088048
:10535000FDF7FAFD707B78218DF80F0020460022C2
:105360000123CDE90057CDF80880FDF7EDFDB07BB6
:1053700078218DF80F00204600220123CDE9005747
:10538000CDF80880FDF7E0FDF07B78218DF80F0067
:10539000204600220123CDE90057CDF80880FDF713
:1053A000D3FD307C78218DF80F00204600220123A8
:1053B000CDE90057CDF80880FDF7C6FD707C782157
:1053C0008DF80F00204600220123CDE90057CDF8CB
:1053D0000880FDF7B9FDB07C78218DF80F002046DC
:1053E00000220123CDE90057CDF80880FDF7ACFD80
:1053F000F07C78218DF80F00204600220123CDE9B2
:105400000057CDF80880FDF79FFD307D78218DF89D
:105410000F00204600220123CDE90057CDF8088077
:10542000FDF792FD707D78218DF80F002046002257
:105430000123CDE90057CDF80880FDF785FDB07D4B
:1054400078218DF80F00204600220123CDE9005776
:10545000CDF80880FDF778FD04B0BDE8F0810000CC
:105460002DE9F04F8BB047B2C0F3C010DDF850907B
:10547000203A01EB400427EAE7711027A4F150001D
:1054800047EA111601F00F05102BD7B240F0B28099
:10549000049440F63C248DF81D004FF001080DF1F6
:1054A0001D00C2F200044FF4807BCDE900082046C5
:1054B000782100220123CDF808B0FDF745FD0DF15C
:1054C0001E00CDE900082046782100220123059620
:1054D0008DF81E60CDF808B0FDF736FD0DF11F0008
:1054E000CDE90008204678210022012306958DF899
:1054F0001F50CDF808B0FDF727FD47F2D0463D011B
:10550000C0F60006705DB9F1000F039500F004814C
:1055100040F63C24C043C2F200048DF820000DF197
:10552000200A2046782140220123CDE900A8CDF8A9
:1055300008B0FDF709FD77197878BD78C04397F872
:1055400003903E798DF820002046782140220123E7
:10555000CDE900A8CDF808B0FDF7F6FCE8438DF8DA
:1055600020002046782140220123CDE900A8CDF873
:1055700008B0FDF7E9FC6FEA09008DF8200020462D
:10558000782140220123CDE900A8CDF808B0FDF72D
:10559000DBFCF0438DF820002046782140220123D7
:1055A000CDE900A8CDF808B0FDF7CEFC78797821D8
:1055B000C0438DF82000204640220123CDE900A8F9
:1055C000CDF808B0FDF7C0FCB8797821C0438DF85C
:1055D0002000204640220123CDE900A8CDF808B0E4
:1055E000FDF7B2FCF879CDE900A8C0438DF82000A2
:1055F0002046F8E040F63C248DF827004FF0010AE1
:105600000DF12700C2F200044FF48078CDE9000AC2
:105610002046782100220123CDF80880FDF794FC74
:105620000AA8CDE9000A20467821002201238DF83E
:105630002860CDF80880FDF787FC0DF12900CDE941
:10564000000A20467821002201238DF82950CDF848
:105650000880FDF779FC47F2A82607EB4705C0F65E
:10566000000616F81500B9F1000F00F0718140F640
:105670003C24C043C2F200048DF82A000DF12A0B2D
:105680002046782140220123CDE900BACDF80880D8
:10569000FDF75AFC06EB45056878AF78C043EE7815
:1056A00095F804908DF82A002046782140220123A5
:1056B000CDE900BACDF80880FDF746FCF8438DF837
:1056C0002A002046782140220123CDE900BACDF8F6
:1056D0000880FDF739FCF0438DF82A002046782138
:1056E00040220123CDE900BACDF80880FDF72CFC5B
:1056F0006FEA09008DF82A00204678214022012314
:10570000CDE900BACDF80880FDF71EFC6879C043EA
:105710008DF82A00CEE100BF40F63C29C2F2000914
:105720008DF821000DF1210A4846782140220123FD
:10573000CDE900A8CDF808B0FDF706FC7719787818
:10574000BD78FC783E798DF82100484678214022CA
:105750000123CDE900A8CDF808B0FDF7F5FB4846D8
:105760007821402201238DF82150CDE900A8CDF801
:1057700008B0FDF7E9FB48467821402201238DF867
:105780002140CDE900A8CDF808B0FDF7DDFB484683
:105790007821402201238DF82160CDE900A8CDF8C1
:1057A00008B0FDF7D1FB787978218DF821004846C3
:1057B00040220123CDE900A8CDF808B0FDF7C4FBD5
:1057C000B87978218DF82100484640220123CDE99F
:1057D00000A8CDF808B0FDF7B7FBF879CDE900A82F
:1057E0008DF821004846782140220123CDF808B0E9
:1057F000FDF7AAFB049840F63C244F388DF82200B0
:105800004FF0010A0DF12200C2F200044FF480783B
:10581000CDE9000A2046782100220123CDF8088036
:10582000FDF792FB059878218DF823000DF12300F8
:10583000CDE9000A204600220123CDF80880FDF7BB
:1058400083FB069878218DF8240009A8CDE9000A89
:10585000204600220123CDF80880FDF775FB039850
:1058600047F2D041C0F600010F181499387A002988
:1058700000F0BC8040F63C24C043C2F200048DF826
:1058800025000DF1250B2046782140220123CDE98A
:1058900000BACDF80880FDF757FB787ABD7AC0438F
:1058A000FE7A97F80C908DF825002046782140224A
:1058B0000123CDE900BACDF80880FDF745FBE843A8
:1058C0008DF825002046782140220123CDE900BA39
:1058D000CDF80880FDF738FBF0438DF82500204611
:1058E000782140220123CDE900BACDF80880FDF7E8
:1058F0002BFB6FEA09008DF8250020467821402215
:105900000123CDE900BACDF80880FDF71DFB787BB7
:105910007821C0438DF82500204640220123CDE99F
:1059200000BACDF80880FDF70FFBB87B7821C043A3
:105930008DF82500204640220123CDE900BACDF89C
:105940000880FDF701FBF87BC0438DF82500B1E02E
:1059500040F63C24C2F200048DF82B000DF12B0B15
:105960002046782140220123CDE900BACDF80880F5
:10597000FDF7EAFA06EB45056878AE78EF7895F81A
:1059800004908DF82B002046782140220123CDE998
:1059900000BACDF80880FDF7D7FA204678214022DA
:1059A00001238DF82B60CDE900BACDF80880FDF712
:1059B000CBFA20467821402201238DF82B70CDE9C7
:1059C00000BACDF80880FDF7BFFA204678214022C2
:1059D00001238DF82B90CDE900BACDF80880FDF7B2
:1059E000B3FA68798DF82B0064E000BF40F63C24E0
:1059F000C2F200048DF826000DF1260B2046782116
:105A000040220123CDE900BACDF80880FDF79CFAC9
:105A1000787ABE7AFD7A97F80C908DF826002046A9
:105A2000782140220123CDE900BACDF80880FDF7A6
:105A30008BFA20467821402201238DF82660CDE99B
:105A400000BACDF80880FDF77FFA20467821402281
:105A500001238DF82650CDE900BACDF80880FDF776
:105A600073FA20467821402201238DF82690CDE953
:105A700000BACDF80880FDF767FA787B78218DF8B9
:105A80002600204640220123CDE900BACDF8088047
:105A9000FDF75AFAB87B78218DF82600204640227F
:105AA0000123CDE900BACDF80880FDF74DFAF87B67
:105AB0008DF826002046782140220123CDE900BA46
:105AC000CDF80880FDF740FA0BB0BDE8F08F00007C
:105AD0002DE9F04782B092461278002A4BD0DDF8CB
